S01A000042616C697374696343616C63756C61746F722E73726563D5
S11300000C949B000C94B8000C94B8000C94B800A9
S11300100C94B8000C94B8000C94B8000C94B8007C
S11300200C94B8000C94B8000C94B8000C94B8006C
S11300300C94B8000C94B8000C94B8000C94B8005C
S11300400C94B8000C94B8000C94B8000C94B8004C
S11300500C94B8000C94B8000C94B8000C94B8003C
S11300600C94B8000C94B800084AD73B3BCE016E00
S113007084BCBFFDC12F3D6C74319ABD56833DDAFB
S11300803D00C77F11BED9E4BB4C3E916BAAAABE0A
S1130090000000803F05A84CCDB2D44EB93836A933
S11300A0020C50B9918688083CA6AAAA2ABE000070
S11300B000803F07634236B79BD8A71A39685618A1
S11300C0AEBAAB558C1D3CB7CC5763BD6DEDFD7519
S11300D03EF6177231BF000000803F08000000BEEA
S11300E0922449123EABAAAA2ABECDCCCC4C3E00E7
S11300F0000080BEABAAAAAA3E00000000BF000018
S113010000803F0000000000084178D3BB4387D142
S1130110133D190E3CC3BD4282AD2B3E68EC827682
S1130120BED98FE1A93E4C80EFFFBE01C4FF7F3FE3
S113013000000000000011241FBECFEFD4E0DEBF9A
S1130140CDBF11E0A0E0B1E0E4E0FFE302C0059020
S11301500D92A23FB107D9F722E0A2EFB1E001C0AE
S11301601D92AD34B207E1F70E94E6160C94801F8D
S11301700C9400009BB19F70282F207F922B9BB979
S11301809BB19E7F9BB99BB192609BB900009BB1D0
S11301909D7F9BB932E43A95F1F700C02BB130E171
S11301A0839FC0011124922F9F70892B8BB98BB12F
S11301B082608BB900008BB18D7F8BB983EF91E0A6
S11301C00197F1F700C0000008959BB19F70282F9C
S11301D0207F922B9BB99BB191609BB99BB192609C
S11301E09BB900009BB19D7F9BB932E43A95F1F72E
S11301F000C02BB130E1839FC0011124922F9F7066
S1130200892B8BB98BB182608BB900008BB18D7F48
S11302108BB983EF91E00197F1F700C000000895D6
S11302200F931F93CF93DF938C01C0E0D0E003C002
S11302300E94E5002196F801EC0FFD1F80818111D9
S1130240F7CFDF91CF911F910F9108958FEF8AB966
S113025087E893E10197F1F700C0000082E00E9473
S1130260BA0088E20E94BA008CE00E94BA0086E0DC
S11302700E94BA0081E00E94BA0083EF91E00197E6
S1130280F1F700C0000008952BED3FE049E450E48D
S11302900E946A1920E030E044E353E40E949D1771
S11302A0089520E030E040E752E40E949D172BEDD2
S11302B03FE049E450E40E946A1920E030E044E35E
S11302C053E40E949D17089520E030E044E353E492
S11302D00E946A192BED3FE049E450E40E949D1707
S11302E0089520E030E040E752E40E946A1920E0DB
S11302F030E044E353E40E946A192BED3FE049E403
S113030050E40E949D1708954F925F926F927F92DE
S11303108F929F92AF92BF92CF92DF92EF92FF9211
S11303200F931F93CF93DF9300D000D0CDB7DEB7E8
S113033049835A836B837C836801790185309105F5
S113034009F436C23CF48130910571F0029709F446
S1130350D8C195C38730910509F4D8C20CF47FC283
S1130360089709F440C38BC320E030E344E855E424
S1130370C701B6010E945D1918160CF48BC320E066
S113038030E046E655E4C701B6010E945D1918162F
S11303900CF495C320E030EA47E555E4C701B60103
S11303A00E945D1918160CF49EC320E030EF4DE452
S11303B055E4C701B6010E945D1918160CF4A6C3D2
S11303C020E030EA43E455E4C701B6010E945D1918
S11303D018160CF4B0C320E030E049E355E4C7013B
S11303E0B6010E945D1918160CF4B9C320E030EE72
S11303F040E355E4C701B6010E945D1918160CF4D8
S1130400C3C320E030E847E255E4C701B6010E94C7
S11304105D1918160CF4CCC320E030EC49E155E426
S1130420C701B6010E945D1918160CF4D4C320E06C
S113043030E14BE055E4C701B6010E945D1918167E
S11304400CF4DEC320E030EE4BEF54E4C701B601F8
S11304500E945D1918160CF4E7C320E030E44CEE5A
S113046054E4C701B6010E945D1918160CF4F0C3D8
S113047020E030E442EE54E4C701B6010E945D1965
S113048018160CF4F8C320E030E448ED54E4C70136
S1130490B6010E945D1918160CF401C420E030E680
S11304A047EC54E4C701B6010E945D1918160CF418
S11304B009C420E030E04EEB54E4C701B6010E94C9
S11304C05D1918160CF413C420E030E841EB54E431
S11304D0C701B6010E945D1918160CF41DC420E072
S11304E030E04AEA54E4C701B6010E945D191816C7
S11304F00CF423C420E030E644EA54E4C701B60116
S11305000E945D1918160CF42BC420E030E040EA78
S113051054E4C701B6010E945D1918160CF433C4E3
S113052020E030E848E954E4C701B6010E945D19AF
S113053018160CF43BC420E030E244E954E4C7014B
S1130540B6010E945D1918160CF443C420E030EC87
S11305504FE854E4C701B6010E945D1918160CF463
S11305604BC420E030E849E854E4C701B6010E94D6
S11305705D1918160CF453C420E030E844E854E440
S1130580C701B6010E945D1918160CF45BC420E083
S113059030E240E854E4C701B6010E945D19181620
S11305A00CF463C420E030E045E754E4C701B6012D
S11305B00E945D1918160CF46BC420E030E44CE67C
S11305C054E4C701B6010E945D1918160CF473C4F3
S11305D020E030E442E654E4C701B6010E945D190C
S11305E018160CF47BC420E030E047E554E4C7015E
S11305F0B6010E945D1918160CF483C420E030E89B
S11306004AE454E4C701B6010E945D1918160CF4BB
S11306108BC420E030E043E454E4C701B6010E94F7
S11306205D1918160CF493C420E030E84BE354E44D
S1130630C701B6010E945D1918160CF49BC420E092
S113064030E04FE254E4C701B6010E945D19181668
S11306500CF4A3C420E030E040E254E4C701B60146
S11306600E945D1918160CF4ABC420E030E046E19A
S113067054E4C701B6010E945D1918160CF4B1C404
S113068020E030E849E054E4C701B6010E945D1956
S113069018160CF4BBC420E030E04AE753E4C70169
S11306A0B6010E945D1918160CF4C3C420E030E0B2
S11306B048EC52E4C701B6010E945D1918160CF407
S11306C0CBC420E030E042E852E4C701B6010E9406
S11306D05D1918160CF4D4C420E030E0A901C70158
S11306E0B6010E945D1918160CF4DFC40F2E412CBC
S11306F0512CF0E86F2EFFEB7F2EF02D53014201B9
S1130700D2C720E030E441ED54E4C701B6010E94B1
S11307105D1918160CF4D9C420E030E842E954E419
S1130720C701B6010E945D1918160CF4E3C420E059
S113073030E844E854E4C701B6010E945D19181674
S11307400CF4EDC420E030E44DE654E4C701B601F6
S11307500E945D1918160CF4F7C420E030E847E253
S113076054E4C701B6010E945D1918160CF401C5C2
S113077020E030E847EA53E4C701B6010E945D195E
S113078018160CF40BC520E030E0A901C701B6012E
S11307900E945D1918160CF416C50F2E412C512C0D
S11307A0F0E86F2EFFEB7F2EF02D530142017BC743
S11307B020E030E448ED54E4C701B6010E945D191D
S11307C018160CF415C520E030E849E954E4C701D3
S11307D0B6010E945D1918160CF41FC520E030E81C
S11307E04BE854E4C701B6010E945D1918160CF4D5
S11307F029C520E030E04BE754E4C701B6010E946C
S11308005D1918160CF433C520E030E441E554E4D6
S1130810C701B6010E945D1918160CF43DC520E00D
S113082030E847EA53E4C701B6010E945D1918167F
S11308300CF447C520E030E0A901C701B6010E94CD
S11308405D1918160CF451C50F2E412C512CF0E8EB
S11308506F2EFFEB7F2EF02D5301420124C720E0C1
S113086030E44AE455E4C701B6010E945D19181644
S11308700CF44FC520E030E141E055E4C701B60176
S11308800E945D1918160CF459C520E030EE43EAB5
S113089054E4C701B6010E945D1918160CF463C52F
S11308A020E030E04FE854E4C701B6010E945D192E
S11308B018160CF46DC520E030E04BE754E4C70192
S11308C0B6010E945D1918160CF477C520E030E8D3
S11308D047E254E4C701B6010E945D1918160CF4EE
S11308E081C520E030E0A901C701B6010E945D196D
S11308F018160CF48CC50F2E412C512CF0E86F2ED9
S1130900FFEB7F2EF02D53014201CDC620E030E4F1
S113091043E855E4C701B6010E945D1918160CF4AA
S11309208BC520E030E84BE355E4C701B6010E94D3
S11309305D1918160CF495C520E030EC47EB54E42F
S1130940C701B6010E945D1918160CF49FC520E07A
S113095030E84DE954E4C701B6010E945D19181648
S11309600CF4A9C520E030EC4AE854E4C701B60110
S11309700E945D1918160CF4B3C520E030E040E77E
S113098054E4C701B6010E945D1918160CF4BDC5E4
S113099020E030E847E254E4C701B6010E945D1943
S11309A018160CF4C6C520E030E047E054E4C70153
S11309B0B6010E945D1918160CF4D0C520E030E091
S11309C0A901C701B6010E945D1918160CF4DBC514
S11309D00F2E412C512CF0E86F2EFFEB7F2EF02DC3
S11309E05301420160C620E030E34FE555E4C701FE
S11309F0B6010E945D1918160CF4DAC520E030E245
S1130A0046EE54E4C701B6010E945D1918160CF4B1
S1130A10E4C520E030E04CE854E4C701B6010E948C
S1130A205D1918160CF4EEC520E030E048E854E4F3
S1130A30C701B6010E945D1918160CF4F8C520E030
S1130A4030E044E754E4C701B6010E945D1918166A
S1130A500CF401C620E030E0A901C701B6010E94F0
S1130A605D1918160CF40CC60F2E412C512CF0E80D
S1130A706F2EFFEB7F2EF02D5301420114C60F2E73
S1130A80412C512CF0E86F2EFFEB7F2EF02D5301FB
S1130A90420109C60F2EF8E94F2EFEE65F2EFAEF4B
S1130AA06F2EFFE37F2EF02D0F2EF4EC8F2EFAEE37
S1130AB09F2EFAE1AF2EF9E3BF2EF02DF4C50F2ED1
S1130AC0F6E64F2E542CF6EF6F2EFFE37F2EF02D1B
S1130AD00F2EF7EB8F2EFCE59F2EF9E4AF2EF9E3F2
S1130AE0BF2EF02DE0C50F2E412C512CF0EF6F2EB0
S1130AF0FFE37F2EF02D0F2EF1EB8F2EF4EC9F2EC3
S1130B00F7E9AF2EF9E3BF2EF02DCDC50F2EFAE98C
S1130B104F2EF9E95F2EF9EE6F2EFFE37F2EF02DB5
S1130B200F2EF0E78F2EFFE09F2EF4EEAF2EF9E3A9
S1130B30BF2EF02DB8C50F2EF3E34F2E542CF3EE39
S1130B406F2EFFE37F2EF02D0F2EFFEC8F2EFDEE88
S1130B509F2EFAE2AF2EFAE3BF2EF02DA4C50F2E7E
S1130B60FDEC4F2EFCEC5F2EFCED6F2EFFE37F2E91
S1130B70F02D0F2EF7E38F2EFAE89F2EFFE7AF2E0E
S1130B80FAE3BF2EF02D8FC50F2EF6E64F2E542C10
S1130B90F6ED6F2EFFE37F2EF02D0F2EFDEC8F2E42
S1130BA0FAE89F2EFEEBAF2EFAE3BF2EF02D7BC5A5
S1130BB00F2E412C512CF0ED6F2EFFE37F2EF02DE4
S1130BC00F2EFAE38F2EFFEB9F2EFDE0AF2EFBE3FB
S1130BD0BF2EF02D68C50F2EFAE94F2EF9E95F2ECE
S1130BE0F9EC6F2EFFE37F2EF02D0F2EFAE78F2EF8
S1130BF0F7E59F2EF2E5AF2EFBE3BF2EF02D53C594
S1130C000F2EF6E64F2E542CF6EC6F2EFFE37F2EBC
S1130C10F02D0F2EFEE68F2EF0EE9F2EFFE7AF2E67
S1130C20FBE3BF2EF02D3FC50F2EFAE94F2EF9E955
S1130C305F2EF9EC6F2EFFE37F2EF02D0F2E812C0B
S1130C40F8E39F2EF3E5AF2EFBE3BF2EF02D2BC56B
S1130C500F2E412C512CF0ED6F2EFFE37F2EF02D43
S1130C600F2EFCEB8F2EF5E69F2EF0E1AF2EFBE36B
S1130C70BF2EF02D18C50F2EF6E64F2E542CF6ED90
S1130C806F2EFFE37F2EF02D0F2EF8EC8F2EFCE05D
S1130C909F2EF6ECAF2EFAE3BF2EF02D04C50F2ED7
S1130CA0412C512CF0EE6F2EFFE37F2EF02D0F2EF2
S1130CB0F3E78F2EF4EB9F2EF1E6AF2EFAE3BF2E6F
S1130CC0F02DF1C40F2EFDEC4F2EFCEC5F2EFCEE4C
S1130CD06F2EFFE37F2EF02D0F2EF5E58F2EFBE315
S1130CE09F2EF6EDAF2EF9E3BF2EF02DDCC40F2EB0
S1130CF0FAE94F2EF9E95F2EF9EF6F2EFFE37F2E0D
S1130D00F02D0F2EFEEF8F2EF0EF9F2EFCE4AF2E72
S1130D10F9E3BF2EF02DC7C4412C512C3201689445
S1130D2063F876F80F2EFBE88F2EF4ED9F2EF3E692
S1130D30AF2EF8E3BF2EF02DB6C40F2E412C512C4C
S1130D40F8E16F2EF0E47F2EF02D0F2EF4EC8F2EB1
S1130D50F0E79F2EF4E1AF2EF7E3BF2EF02DA3C4EE
S1130D600F2E412C512CF8E26F2EF0E47F2EF02D43
S1130D700F2EF8E78F2EFBE89F2EF3ECAF2EF5E352
S1130D80BF2EF02D90C40F2E412C512CF8E36F2E62
S1130D90F0E47F2EF02D0F2EF7E28F2EF5EE9F2E2E
S1130DA0F1E8AF2EF4E3BF2EF02D7DC40F2E412CBD
S1130DB0512CF0E56F2EF0E47F2EF02D0F2EF8ED80
S1130DC08F2EFAE69F2EFEE8AF2EF2E3BF2EF02D13
S1130DD06AC40F2E412C512CF0E76F2EF0E47F2EC5
S1130DE0F02D0F2EF6E48F2EF1E79F2EF2E0AF2EBA
S1130DF0F0E3BF2EF02D57C40F2E412C512CF8E8F0
S1130E006F2EF0E47F2EF02D0F2EF3E48F2EFAEBED
S1130E109F2EF2E7AF2EFDE2BF2EF02D44C40F2E1D
S1130E20412C512CF8E96F2EF0E47F2EF02D0F2E7B
S1130E30F8E28F2EF1E29F2EF5EEAF2EFAE2BF2EEE
S1130E40F02D31C40F2E412C512CF4EA6F2EF0E416
S1130E507F2EF02D0F2EF1E98F2EF3E59F2EF4E077
S1130E60AF2EF9E2BF2EF02D1EC40F2E412C512CB3
S1130E70F8EA6F2EF0E47F2EF02D0F2EFEE08F2E79
S1130E80F3E59F2EFDE5AF2EF8E2BF2EF02D0BC447
S1130E900F2E412C512CF4EA6F2EF0E47F2EF02D0E
S1130EA00F2EF2E08F2EFEE59F2EF3E0AF2EF9E237
S1130EB0BF2EF02DF8C30F2E412C512CF8E96F2EC4
S1130EC0F0E47F2EF02D0F2EF6ED8F2EF5E09F2E01
S1130ED0F9EDAF2EFAE2BF2EF02DE5C30F2E412C13
S1130EE0512CF8E86F2EF0E47F2EF02D0F2EF7E052
S1130EF08F2EFCE79F2EF0E5AF2EFDE2BF2EF02DE6
S1130F00D2C30F2E412C512CF0E76F2EF0E47F2E2C
S1130F10F02D0F2EFFEC8F2EFCE09F2EF4ECAF2E65
S1130F20FFE2BF2EF02DBFC30F2E412C512CF0E554
S1130F306F2EF0E47F2EF02D0F2EF9E28F2EFEE9B6
S1130F409F2EF3E3AF2EF2E3BF2EF02DACC30F2E92
S1130F50412C512CF8E36F2EF0E47F2EF02D0F2E50
S1130F60FDE18F2EF3EA9F2EFAE0AF2EF4E3BF2EBD
S1130F70F02D99C30F2E412C512CF8E26F2EF0E482
S1130F807F2EF02D0F2EFFE18F2EF1E39F2EF7E33E
S1130F90AF2EF5E3BF2EF02D86C30F2E412C512C1E
S1130FA0F8E16F2EF0E47F2EF02D0F2EFEED8F2E44
S1130FB0F5E89F2EFFE6AF2EF6E3BF2EF02D73C3A8
S1130FC0412C512C3201689463F876F80F2EFCE81A
S1130FD08F2EF4E49F2EFAE9AF2EF7E3BF2EF02D07
S1130FE062C30F2EFAE94F2EF9E95F2EF9EF6F2E47
S1130FF0FFE37F2EF02D0F2EF5E48F2EFBE89F2EBE
S1131000FFE6AF2EF8E3BF2EF02D4DC30F2E412C7B
S1131010512CF0EF6F2EFFE37F2EF02D0F2EF4EB0B
S11310208F2EFEE79F2EF1ECAF2EF8E3BF2EF02DAE
S11310303AC30F2E412C512CF0EF6F2EFFE37F2E7D
S1131040F02D0F2EF6EF8F2EF4ED9F2EF3ECAF2E36
S1131050F8E3BF2EF02D27C30F2EF6E64F2E542CA7
S1131060F6EF6F2EFFE37F2EF02D0F2EF0E48F2E80
S1131070F6E89F2EF7E9AF2EF8E3BF2EF02D13C349
S11310800F2EFDEC4F2EFCEC5F2EFCEF6F2EFFE3DA
S11310907F2EF02D0F2EFBE78F2EF6EF9F2EF2E71B
S11310A0AF2EF8E3BF2EF02DFEC2412C512C32019D
S11310B0689476F80F2EFCE48F2EFDE59F2EFAE55A
S11310C0AF2EF8E3BF2EF02DEEC20F2EF1E24F2E1D
S11310D0FCE55F2EFFEA6F2EFFE37F2EF02D0F2E2F
S11310E0F8E28F2EF4E39F2EF2E0AF2EFCE3BF2E46
S11310F0F02DD9C20F2EFAEB4F2EF3EB5F2EF3ED4A
S11311006F2EFFE37F2EF02D0F2EF8E48F2EFFE9D4
S11311109F2EF3E8AF2EFAE3BF2EF02DC4C20F2E9C
S1131120FFE84F2EF9E65F2EFDEF6F2EF0E47F2EE1
S1131130F02D0F2EF7EB8F2EF3E09F2EFDEAAF2E4E
S1131140FAE1BF2EF02DAFC20F2EFEE04F2EFFE1CD
S11311505F2EF4E76F2EF0E47F2EF02D0F2EFAE0D1
S11311608F2EFBE79F2EF9E1AF2EFFE2BF2EF02D6D
S11311709AC20F2EF6E34F2EFEEF5F2EFBED6F2E7D
S1131180FFE37F2EF02D0F2EF3EB8F2EFFEB9F2E20
S1131190F5E7AF2EF9E3BF2EF02D85C20F2EFCE349
S11311A04F2EF7E65F2EF2EE6F2EFFE37F2EF02D2B
S11311B00F2EFEE68F2EFBE99F2EFAE3AF2EF9E306
S11311C0BF2EF02D70C20F2EF8E24F2EF5EA5F2EDF
S11311D0FDEF6F2EFFE37F2EF02D0F2EFEE68F2EF8
S11311E0F7E49F2EF9E5AF2EF8E3BF2EF02D5BC296
S11311F00F2EFCE54F2EFBE25F2EF5EB6F2EFFE387
S11312007F2EF02D0F2EFAE38F2EF5E89F2EFDEEA4
S1131210AF2EFBE3BF2EF02D46C20F2EF6E94F2E64
S1131220FEE55F2EF8E06F2EF0E47F2EF02D0F2EFA
S1131230F4E78F2EF9E09F2EF3E1AF2EF8E3BF2EF3
S1131240F02D31C20F2EFCE74F2EF7E35F2EFAE9A3
S11312506F2EF0E47F2EF02D0F2EF3EE8F2EF2E39F
S11312609F2EFFE4AF2EFAE2BF2EF02D1CC20F2EEC
S1131270FAEF4F2EFBEE5F2EF9EF6F2EF0E47F2E88
S1131280F02D0F2EFDEA8F2EFBED9F2EF2E2AF2EF6
S1131290FBE1BF2EF02D07C20F2EFDE14F2EF4EE21
S11312A05F2EF5E36F2EF0E47F2EF02D0F2EF6EE79
S11312B08F2EF3E49F2EFFEDAF2EF3E3BF2EF02D20
S11312C0F2C10F2EF8EA4F2EFDEC5F2EF7EE6F2ED3
S11312D0FFE37F2EF02D0F2EF9ED8F2EF8E39F2ED6
S11312E0F5EEAF2EB92CF02DDEC10F2EFBE44F2E00
S11312F0FEE45F2E612CF0E47F2EF02D0F2EF2EC35
S11313008F2EFFE99F2EF3E1AF2EF8E3BF2EF02DD1
S1131310CAC10F2EFEE14F2EFAE75F2EF4E96F2EBD
S1131320FFE37F2EF02D0F2EF1E98F2EF6E89F2E8E
S1131330FAE3AF2EFDE3BF2EF02DB5C10F2EF1EA77
S11313404F2EF3EB5F2EFDE86F2EFFE37F2EF02D83
S11313500F2EF8E18F2EF9EC9F2EF2E9AF2EFDE36C
S1131360BF2EF02DA0C10F2EF0EB4F2EF8EE5F2E06
S1131370FCEC6F2EFFE37F2EF02D0F2EF1E58F2E68
S1131380F7E79F2EFAEDAF2EFAE3BF2EF02D8BC1B7
S11313900F2EF5EF4F2EFEE35F2EFDE36F2EF0E4EC
S11313A07F2EF02D0F2EF9EB8F2EFEEE9F2EF9EDF2
S11313B0AF2EF3E3BF2EF02D76C10F2EFDEF4F2E8F
S11313C0F9EE5F2EFAEC6F2EF0E47F2EF02D0F2E47
S11313D0F0E18F2EF6E39F2EFFE9AF2EF2E2BF2E4F
S11313E0F02D61C10F2EF9E04F2EFBE75F2EF7E0E1
S11313F06F2EF0E47F2EF02D0F2EFFE18F2EF4EDF3
S11314009F2EFBEAAF2EF7E3BF2EF02D4CC10F2E1B
S1131410FDEB4F2EFCEC5F2EF5EF6F2EFFE37F2EDE
S1131420F02D0F2EFEE48F2EFAE79F2EFDE9AF2E4E
S1131430F8E3BF2EF02D37C10F2EF8E04F2EF0E762
S11314405F2EFFE46F2EF0E47F2EF02D0F2EF2E9D5
S11314508F2EF8E69F2EF1EBAF2EF0E3BF2EF02D8A
S113146022C10F2EFFE94F2EF8EB5F2EF3EA6F2E09
S1131470FFE37F2EF02D0F2EF9ED8F2EFDE69F2E2C
S1131480FCE8AF2EFCE3BF2EF02D0DC10F2EFEEBBA
S11314904F2EF2E75F2EF3EC6F2EFFE37F2EF02D3D
S11314A00F2EF2EA8F2EFEEE9F2EF8E1AF2EFBE315
S11314B0BF2EF02DF8C00F2EF3E54F2EF4EA5F2E69
S11314C0F6ED6F2EFFE37F2EF02D0F2EF0E88F2E1A
S11314D0F5E19F2EF1E5AF2EFAE3BF2EF02DE3C028
S11314E00F2EF3EF4F2EF7E45F2EFAE86F2EF0E4A1
S11314F07F2EF02D0F2EF4EE8F2EFEEE9F2EF8ECA5
S1131500AF2EFCE2BF2EF02DCEC00F2EF9E24F2EEF
S1131510F4EB5F2EFFEB6F2EF0E47F2EF02D0F2EF9
S1131520812CFCEA9F2EFBE0AF2EF4E2BF2EF02DBF
S1131530BAC00F2EF2E94F2EFFE15F2EFBE06F2EB3
S1131540F0E47F2EF02D0F2EFEEC8F2EFCE69F2E66
S1131550FCEFAF2EF6E3BF2EF02DA5C00F2EF5EA5B
S11315604F2EFDE95F2EF5E06F2EF0E47F2EF02D77
S11315700F2EF0E38F2EF1E19F2EFDE5AF2EF7E362
S1131580BF2EF02D90C00F2EF9EC4F2EF1E95F2EF7
S1131590F5E06F2EF0E47F2EF02D0F2EF4E68F2E63
S11315A0F9EA9F2EF1E6AF2EF7E3BF2EF02D7BC0B4
S11315B00F2EF2E64F2EF1E85F2EFAEA6F2EFFE3CC
S11315C07F2EF02D0F2EF6ED8F2EFEEE9F2EF7E3DD
S11315D0AF2EFCE3BF2EF02D66C00F2EFAEF4F2E78
S11315E0FFEA5F2EF4EA6F2EFFE37F2EF02D0F2E1D
S11315F0FAE68F2EF3E09F2EF9E8AF2EFCE3BF2E20
S1131600F02D51C00F2EFCEE4F2EF6E35F2EF7ECBB
S11316106F2EFFE37F2EF02D0F2EFFEC8F2EFAE4BA
S11316209F2EF0E1AF2EFBE3BF2EF02D3CC00F2E1A
S1131630F0E44F2EFBEB5F2EF9EB6F2E742CF02DA4
S11316400F2EF6E98F2EF9EC9F2EFCE6AF2EF5E275
S1131650BF2EF02D28C00F2EF1E44F2EFEE55F2E95
S1131660F9E86F2EF0E47F2EF02D0F2EF7E08F2E89
S1131670FBE59F2EF0EDAF2EFCE2BF2EF02D13C044
S11316800F2EF4ED4F2EF8EF5F2E66246A94FFE3DD
S11316907F2EF02D0F2EF4EE8F2EF3E39F2EF8E322
S11316A0AF2EBA2CF02D20E030E040E85FEBC5010E
S11316B0B4010E9493178823A1F120E030E040E8B0
S11316C05FEBC301B2010E949317882379F120E0F4
S11316D030E0A901C701B6010E945D1918165CF536
S11316E020E030E44CE156E4C701B6010E949317B0
S11316F0882334F5A3019201C701B6010E94D719CA
S11317009B01AC01C501B4010E946A1929813A8187
S11317104B815C810E949D17562F472F382F292F0C
S113172013C050E040E030E82FEB0EC050E040E042
S113173030E82FEB09C050E040E030E82FEB04C064
S113174050E040E030E82FEB652F742F832F922F69
S11317500F900F900F900F90DF91CF911F910F91E9
S1131760FF90EF90DF90CF90BF90AF909F908F90BD
S11317707F906F905F904F9008954F925F926F9219
S11317807F928F929F92AF92BF92CF92DF92EF920D
S1131790FF920F931F93CF93DF9300D000D0CDB768
S11317A0DEB74B015C0129013A01E982FA820B831D
S11317B01C8320E030E040E450E40E94D7192DEB74
S11317C037E346E856E30E946A196B017C0120E086
S11317D030E040E050E4C501B4010E94D71927E18C
S11317E037EB41ED59E30E946A199B01AC01C70133
S11317F0B6010E94F7166B017C012BE531EB4FEB30
S11318005CE3C501B4010E946A199B01AC01C701E4
S1131810B6010E94F81623ED3EED40E85EE30E9417
S1131820F7166B017C012AE830EB41EC5EE3698139
S11318307A818B819C810E946A199B01AC01C7014A
S1131840B6010E946A199B01AC01C301B2010E9456
S1131850F7169B01AC01C301B2010E949D1722E55A
S113186038EB4EE75FE30E946A190F900F900F90D8
S11318700F90DF91CF911F910F91FF90EF90DF9028
S1131880CF90BF90AF909F908F907F906F905F901C
S11318904F90089521E73DE34CEE51E40E94F71682
S11318A021E73DE34CEE51E40E949D1708958F9289
S11318B09F92AF92BF92CF92DF92EF92FF924B0131
S11318C05C01CA01B9012AEF3DEE4BE65BEB0E94D5
S11318D06A1920E030E04CE652E40E94F8166B01ED
S11318E07C019B01AC01C501B4010E94F7164B01B8
S11318F05C012DEC3CEC45EE53E4C701B6010E94BB
S1131900F8169B01AC01C501B4010E949D17FF901C
S1131910EF90DF90CF90BF90AF909F908F900895FD
S11319208F929F92AF92BF92CF92DF92EF92FF92EB
S11319306B017C0120E030E040E450E40E94D719C0
S11319402DE73DE140E957EA0E946A194B015C0129
S113195020E030E040E050E4C701B6010E94D7190E
S11319602FEF36EE4BED5FE20E946A199B01AC014A
S1131970C501B4010E94F8164B015C0122E838EA63
S11319804BEF57E3C701B6010E946A199B01AC01F2
S1131990C501B4010E94F71620E030E040E85FE39F
S11319A00E94F8169B01AC0160E070E080E89FE3C0
S11319B00E949D17FF90EF90DF90CF90BF90AF9063
S11319C09F908F9008954F925F926F927F928F9223
S11319D09F92AF92BF92CF92DF92EF92FF920F93BA
S11319E01F93CF93DF93CDB7DEB72C970FB6F89440
S11319F0DEBF0FBECDBF69877A878B879C8729019D
S1131A003A01E982FA820B831C83CA01B9010E945C
S1131A10900C6D837E838F839887A3019201C60106
S1131A20B5010E94570C2B013C01EF8CF8A009A1D1
S1131A301AA129813A814B815C81C601B5010E94BA
S1131A40BD0B6B017C0169817A818B819C810E9431
S1131A504A0C4B015C0120E030E040E85FE3C30145
S1131A60B2010E94F816A50194010E94F7169B0189
S1131A70AC016D817E818F8198850E946A199B01DA
S1131A80AC01C701B6010E946A1929853A854B85C4
S1131A905C850E946A192C960FB6F894DEBF0FBEBF
S1131AA0CDBFDF91CF911F910F91FF90EF90DF9009
S1131AB0CF90BF90AF909F908F907F906F905F90EA
S1131AC04F9008954F925F926F927F92AF92BF9220
S1131AD0CF92DF92EF92FF920F931F93CF93DF93F6
S1131AE0CDB7DEB728970FB6F894DEBF0FBECDBFD3
S1131AF029833A834B835C832DEC3CEC4CE851E422
S1131B000E946A196D837E838F83988729813A8125
S1131B104B815C81C801B7010E949D179B01AC01F8
S1131B20C601B5010E94F7169B01AC016D817E814F
S1131B308F8198850E946A1928960FB6F894DEBFA3
S1131B400FBECDBFDF91CF911F910F91FF90EF900A
S1131B50DF90CF90BF90AF907F906F905F904F9049
S1131B600895CF92DF92EF92FF926B017C01CA013C
S1131B70B9010E9444010E949817A70196010E948E
S1131B806A19FF90EF90DF90CF900895CF92DF9283
S1131B90EF92FF926B017C01CA01B9010E944401DA
S1131BA00E94271AA70196010E946A19FF90EF90DC
S1131BB0DF90CF9008952F923F924F925F926F9251
S1131BC07F928F929F92AF92BF92CF92DF92EF92C9
S1131BD0FF920F931F93CF93DF93CDB7DEB7E697B2
S1131BE00FB6F894DEBF0FBECDBF98A38F8F49A365
S1131BF05AA36BA37CA30FA718AB29AB3AAB8B8E6C
S1131C009C8EAD8EBE8ED701C601B0588BAB9CABFB
S1131C10ADABBEAB60E070E080E691E40E944401AD
S1131C2069A77AA78BA79CA71EA61DA61DA21EA204
S1131C301FA218A616C26DA17EA18FA198A50E940D
S1131C40271A4B015C019B01AC016FA578A989A9F6
S1131C509AA90E946A19562E472E8D839E836DA1E0
S1131C607EA18FA198A50E9498176B017C019B010E
S1131C70AC016FA578A989A99AA90E946A19362E80
S1131C80272E782E692E28EA36EC40E052ECC50166
S1131C90B4010E946A196B8B7C8B8D8B9E8B28EA16
S1131CA036EC40E052ECC701B6010E946A196F8B12
S1131CB0788F898F9A8F20E030E040E451E46BA95B
S1131CC07CA98DA99EA90E949D176B877C878D870F
S1131CD09E871F82188619861A8627C120E030E065
S1131CE040E050E4632D722D872D962D0E94D71964
S1131CF06B017C0120E030E040E050E4652D742D60
S1131D008D819E810E94D7199B01AC01C701B60148
S1131D100E94F81620E030E040E05FE30E94D7190B
S1131D206B017C019B01AC0160E070E080E89FE303
S1131D300E949D1769837A838B839C839701860114
S1131D4049A15AA16BA17CA18F8D98A10E94840105
S1131D504B015C01B7FAB094B7F8B094A5019401B3
S1131D60652D742D8D819E810E946A19A7019601AB
S1131D700E949D179B01AC0169817A818B819C81B2
S1131D800E946A196F87788B898B9A8BA5019401BD
S1131D90632D722D872D962D0E946A19A701960135
S1131DA00E949D179B01AC0169817A818B819C8182
S1131DB00E946A199B01AC01632D722D872D962D0B
S1131DC00E94F8166B017C012F85388949895A894C
S1131DD0652D742D8D819E810E94F8164B015C0146
S1131DE029813A814B815C816F89788D898D9A8DA7
S1131DF00E946A199B01AC01C501B4010E94F81646
S1131E00162F072FB82EA92E29813A814B815C8188
S1131E106B897C898D899E890E946A199B01AC011A
S1131E20C701B6010E94F816F62EE72ED82EC92E49
S1131E30262F372F482F592F632D722D872D962D3E
S1131E400E94F8169B01AC0169817A818B819C8187
S1131E500E946A1920E030E040E05FE30E946A19C2
S1131E609B01AC016F81788589859A850E94F8165B
S1131E706F83788789879A87212F302F4B2D5A2D8E
S1131E80652D742D8D819E810E94F8169B01AC01F5
S1131E9069817A818B819C810E946A1920E030E0FB
S1131EA040E05FE30E946A199B01AC016B857C856D
S1131EB08D859E850E94F8166B877C878D879E870B
S1131EC020E030E0A901612F702F8B2D9A2D0E9404
S1131ED09317882374F42F962CAD3DAD4EAD5FADB2
S1131EE02F976B857C858D859E850E94931788230B
S1131EF08CF120E030E040E450E46F2D7E2D8D2DF8
S1131F009C2D0E946A199B01AC01612F702F8B2DAF
S1131F109A2D0E945D191816ECF0512E402EBD82A8
S1131F20AE823F2C2E2C7D2C6C2C20E030E040E443
S1131F3050E46B8D7C8D8D8D9E8D0E946A199B0162
S1131F40AC016F81788589859A850E94931718164C
S1131F500CF0C4CE2F962CAD3DAD4EAD5FAD2F979A
S1131F606B857C858D859E850E945D191816D4F439
S1131F7020E030E0A90169A57AA58BA59CA50E9463
S1131F805D1918167CF469A57AA58BA59CA59058B3
S1131F9020E030E040E05FE30E946A1969A77AA775
S1131FA08BA79CA72F962CAD3DAD4EAD5FAD2F9763
S1131FB06B857C858D859E850E9493178823D4F438
S1131FC020E030E0A90169A57AA58BA59CA50E9413
S1131FD0931788237CF469A57AA58BA59CA59058B2
S1131FE020E030E040E05FE30E946A1969A77AA725
S1131FF08BA79CA76AE077ED83E29CE30E945101E2
S11320009B01AC0169A57AA58BA59CA59F770E942D
S11320109317882324F4A1E0B0E0BEA7ADA760E045
S113202070E084E392E40E9444019B01AC016DA141
S11320307EA18FA198A50E945D19181624F481E051
S113204090E09EA78DA729A53AA54BA55CA56DA1F7
S11320507EA18FA198A50E94F8166DA37EA38FA3DD
S113206098A7ADA5BEA5AB2B09F4E5CD6DA17EA1C6
S11320708FA198A50E946401E6960FB6F894DEBF7E
S11320800FBECDBFDF91CF911F910F91FF90EF90C5
S1132090DF90CF90BF90AF909F908F907F906F9084
S11320A05F904F903F902F9008952F923F924F92C0
S11320B05F926F927F928F929F92AF92BF92CF92D4
S11320C0DF92EF92FF920F931F93CF93DF93CDB7DD
S11320D0DEB7E4970FB6F894DEBF0FBECDBF9CA366
S11320E08BA34DA35EA36FA378A70DA71EA72FA74D
S11320F038AB65962CAD3DAD4EAD5FAD6597619641
S11321006CAD7DAD8EAD9FAD61970E94B10D6F8BAF
S1132110788F898F9A8F65962CAD3DAD4EAD5FADAE
S1132120659761966CAD7DAD8EAD9FAD61970E9454
S1132130C60D69AB7AAB8BAB9CAB2D962CAD3DAD8C
S11321404EAD5FAD2D97C501B4010E94F8160E94F3
S113215044014B015C010E94981728EA36EC40E0E8
S113216052EC0E946A196B8F7C8F8D8F9E8FC501F4
S1132170B4010E94271A28EA36EC40E052EC0E948F
S11321806A196F8F78A389A39AA32D966CAD7DAD40
S11321908EAD9FAD2D970E9444014B015C010E94BE
S11321A098179B01AC016DA57EA58FA598A90E94E7
S11321B06A196D837E838F839887C501B4010E9459
S11321C0271A9B01AC016DA57EA58FA598A90E9435
S11321D06A1969877A87282E392EC701B601905863
S11321E020E030E040E451E40E949D176F87788B33
S11321F0898B9A8B1B861C861D861E861B8A1C8ACD
S11322001D8A1E8A20E030E040E050E46D817E812A
S11322108F8198850E94D7196B017C0120E030E002
S113222040E050E469857A85822D932D0E94D71968
S11322309B01AC01C701B6010E94F81620E030E012
S113224040E05FE30E94D719D62EE72EF82EC92E60
S113225069A77AA78BA79CA7262F372F482F592F1A
S113226060E070E080E09FE30E949D1769837A83B9
S11322708B839C832D2D3E2D4F2D5C2D6F89788D66
S1132280898D9A8D0E94F8168B019C014DA15EA147
S11322906FA178A58BA19CA10E9484014B015C01D4
S11322A02D2D3E2D4F2D5C2D6D817E818F81988546
S11322B00E949D179B01AC015058C501B4010E94B6
S11322C06A192B013C012D2D3E2D4F2D5C2D698566
S11322D07A85822D932D0E949D179B01AC01505845
S11322E0C501B4010E946A196B017C01A30192012A
S11322F069817A818B819C810E946A199B01AC015E
S11323006D817E818F8198850E94F8164B015C0156
S113231029813A814B815C816F8D78A189A19AA131
S11323200E946A199B01AC01C501B4010E94F81610
S1132330A62EB72E082F192FA701960169817A813D
S11323408B819C810E946A199B01AC0169857A8505
S1132350822D932D0E94F8166B017C0129813A810C
S11323604B815C816B8D7C8D8D8D9E8D0E946A1955
S11323709B01AC01C701B6010E94F8162B013C0178
S113238020E030E040E450E46B857C858D859E85BB
S11323900E949D176B017C010E940F18CB0162E320
S11323A070E00E944D1B4C01892B09F086C0AD8260
S11323B0BE82202E312E6796EEADFFAD6797C082A8
S11323C0D182E282F38220E030E040E451E46F8580
S11323D0788989899A890E946A196796EEADFFAD5A
S11323E0679764837583868397832B853C854D85A6
S11323F05E856F85788989899A890E949D170E94D4
S113240064170E947101DC01CB01B0586796EEADF0
S1132410FFAD679780879187A287B38729813A8127
S11324204B815C816B897C898D899E890E94F81619
S11324306796EEADFFAD6797648775878687978744
S11324405B016C01EB84FC840D851E852DA53EA5E6
S11324504FA558A969A97AA98BA99CA90E94620DC4
S11324606796EEADFFAD6797608B718B828B938B14
S11324700E9464170E9471016796EEADFFAD6797E5
S1132480648B758B868B978B89A59AA5ABA5BCA508
S1132490808F918FA28FB38F8D819E81A22DB32DBA
S11324A0848F958FA68FB78F40A251A262A273A288
S11324B014A215A216A217A274C02A2D3B2D402FD8
S11324C0512F6D817E818F8198850E94F8169B0122
S11324D0AC0169817A818B819C810E946A1920E018
S11324E030E040E05FE30E946A199B01AC016B8518
S11324F07C858D859E850E94F8166B877C878D87E9
S11325009E87A301920169857A85822D932D0E946D
S1132510F8169B01AC0169817A818B819C810E94B0
S11325206A1920E030E040E05FE30E946A199B01F1
S1132530AC016F85788989899A890E94F8166F871A
S1132540788B898B9A8B20E030E040E450E46A2D4C
S11325507B2D802F912F0E946A199B01AC015F771C
S1132560C301B2019F770E945D191816BCF029813E
S11325703A814B815C816B897C898D899E890E941B
S1132580F8166B8B7C8B8D8B9E8BAD82BE820F83FA
S1132590188749865A86262C372C34CE88248A9468
S11325A0982CC401E4960FB6F894DEBF0FBECDBFDD
S11325B0DF91CF911F910F91FF90EF90DF90CF901B
S11325C0BF90AF909F908F907F906F905F904F904F
S11325D03F902F900895CF92DF92EF92FF920F9346
S11325E01F93CF93DF93EC018B01FC01EC5BF24F63
S11325F0C080D180E280F380072E000C880B990BF9
S11326000E9447189B01AC01C701B6010E945D19E5
S1132610181674F488E2809FF001819FF00D112454
S11326203496EC0FFD1F608171818281938103C018
S113263060E070E0CB01DF91CF911F910F91FF908B
S1132640EF90DF90CF900895CF92DF92EF92FF92B8
S11326500F931F93CF93DF93EC018B01FC01EC5B91
S1132660F24FC080D180E280F380072E000C880BEB
S1132670990B0E9447189B01AC01C701B6010E9447
S11326805D19181674F488E2809FF001819FF00DA3
S113269011243896EC0FFD1F608171818281938132
S11326A003C060E070E0CB01DF91CF911F910F91E7
S11326B0FF90EF90DF90CF900895CF92DF92EF924A
S11326C0FF920F931F93CF93DF93EC018B01FC01D7
S11326D0EC5BF24FC080D180E280F380072E000CC7
S11326E0880B990B0E9447189B01AC01C701B601E6
S11326F00E945D19181674F488E2809FF001819F8E
S1132700F00D11247096EC0FFD1F608171818281A0
S1132710938103C060E070E0CB01DF91CF911F9102
S11327200F91FF90EF90DF90CF900895CF92DF92BA
S1132730EF92FF920F931F93CF93DF93EC018B01E2
S1132740FC01EC5BF24FC080D180E280F380072E65
S1132750000C880B990B0E9447189B01AC01C70120
S1132760B6010E945D19181674F488E2809FF00186
S1132770819FF00D11247496EC0FFD1F608171810F
S11327808281938103C060E070E0CB01DF91CF913F
S11327901F910F91FF90EF90DF90CF90089584B137
S11327A08F6084B987B1887F87B918B815B8089540
S11327B040E050E03CC081E090E0042E02C0880F6D
S11327C0991F0A94E2F785B983EC99E00197F1F730
S11327D000C0000020E030E025C086B190E0022E69
S11327E002C0959587950A94E2F780FF19C0FA0113
S11327F0EE0FFF1FEE0FFF1FEA5FFE4FE20FF31F06
S11328008081823469F486B190E0022E02C09595ED
S113281087950A94E2F780FDF6CF81E090E0089571
S11328202F5F3F4F24303105C4F24F5F5F4F443078
S113283051050CF280E090E008952F923F924F9260
S11328405F926F927F928F929F92AF92BF92CF923C
S1132850DF92EF92FF920F931F93CF93DF93CDB745
S1132860DEB7C354D1090FB6F894DEBF0FBECDBF97
S1132870182F8D3209F074C0E0912802EE2309F478
S113288047C2E150E0932802F0E0E75DFD4F10817C
S1132890108281E00E94BA0089E292E00E94100155
S11328A01E3219F41092230233C26091230266236C
S11328B0C1F18FEF860F80932302612F70E08B01AB
S11328C000531109682F70E080E090E00E944518E1
S11328D09B01AC0160E070E080E291E40E94D719B2
S11328E06B017C01B801110F880B990B0E944718EA
S11328F0A70196010E949D179B01AC0160912402DF
S11329007091250280912602909127020E94F71669
S113291060932402709325028093260290932702E9
S1132920F7C120E030E040E251E46091240270916C
S1132930250280912602909127020E949D170E94F1
S11329400F18072E000C880B990B0E9447186093F0
S11329502402709325028093260290932702D8C103
S11329608E32A9F4809123028111D2C181E0809337
S1132970230280912802E82FF0E0E75DFD4F1083E9
S11329808F5F80932802812F0E94E500C1C180EDF2
S1132990810F8A3008F05CC0612F70E060537109C8
S11329A0072E000C880B990B0E9447186B017C01C1
S11329B0B0902302B1100DC013C020E030E040E21B
S11329C051E4C701B6010E949D176B017C010F5FA2
S11329D001C000E00B1588F3B394B092230216C033
S11329E020E030E040E251E460912402709125023D
S11329F080912602909127020E946A196093240212
S1132A00709325028093260290932702A7019601D2
S1132A1060912402709125028091260290912702F0
S1132A200E94F81660932402709325028093260274
S1132A309093270280912802E82FF0E0E75DFD4F94
S1132A4010838F5F80932802812F0E94E50060C16C
S1132A50133709F05DC18091F201E82FF0E0EE0F29
S1132A60FF1FEE0FFF1FED50FE4F409124025091C7
S1132A70250260912602709127024083518362836C
S1132A80738310922402109225021092260210924F
S1132A902702109223028F5F8093F20181E00E944B
S1132AA0BA00E091F201EC3070F4F0E0EE0FFF1F99
S1132AB0EA5EFE4F808191810E94100184E791E0DB
S1132AC00E94100125C1EC3008F422C10F2EF3EF4F
S1132AD02F2EF1E03F2EF02DF10184A595A566A5DA
S1132AE077A5A0A4B1A4C2A4D3A4E4A0F5A006A190
S1132AF017A120A131A142A153A14080518062803D
S1132B0073807F936F939F938F93C301B2010E944D
S1132B10E30C0F900F900F900F9022966CAF7DAF47
S1132B208EAF9FAF2297F101848D958D268D378DC1
S1132B30808C918CA28CB38C408551856285738581
S1132B404EAB5FAB68AF79AF4481558166817781C5
S1132B504AAF5BAF6CAF7DAF3F932F939F938F933F
S1132B60CEA8DFA8E8ACF9AC0AAD1BAD2CAD3DADE9
S1132B70B301A20181E090E00E94DB0D0F900F9061
S1132B800F900F90F101A489B589168907894089AE
S1132B905189F288E38884849584A684B7849E014D
S1132BA02C5C3F4F3F932F930F931F93BF93AF938F
S1132BB0EF92FF925F934F939F938F937F936F93C3
S1132BC0CEA8DFA8E8ACF9AC0AAD1BAD2CAD3DAD89
S1132BD022964CAD5DAD6EAD7FAD229781E090E065
S1132BE00E94551024969FAF8EAF24978CA99DA95F
S1132BF00E940D1C0FB6F894DEBF0FBECDBFD12CC2
S1132C007DC0ECA8FDA8B801C7010E94EB12562EA6
S1132C10472E382E292EB801C7010E9424136EAB0B
S1132C20C72EB82EA92EB801C7010E945D13962E97
S1132C30872E782E692EB801C7010E9496136AAFB9
S1132C407EAFE82EF92E2F923F924F925F921F9201
S1132C50DF928EE291E09F938F938E010D5D1F4F63
S1132C601F930F930E94961C6F927F928F929F9254
S1132C70AF92BF92CF925EA95F9383E491E09F935A
S1132C808F93CE0142969F938F930E94961CFF923E
S1132C90EF926EAD6F937AAD7F9388E591E09F9349
S1132CA08F93CE0101969F938F930E94961C81E08F
S1132CB00E94BA00C8010E9410010FB6F894DEBF4A
S1132CC00FBECDBF0E94D813892BE1F381E00E948F
S1132CD0BA00CE0142960E9410010E94D813892B9B
S1132CE0E1F381E00E94BA00CE0101960E94100136
S1132CF00E94D813892BE1F392E3D90E0D2D10E035
S1132D002496EEADFFAD2497E017F1070CF079CFD0
S1132D10CD5BDF4F0FB6F894DEBF0FBECDBFDF91A2
S1132D20CF911F910F91FF90EF90DF90CF90BF90C4
S1132D30AF909F908F907F906F905F904F903F9057
S1132D402F9008950F931F93CF93DF9300E010E02B
S1132D5035C081E090E0002E02C0880F991F0A94CC
S1132D60E2F785B983EC99E00197F1F700C0000020
S1132D70C0E0D0E01DC086B190E00C2E02C0959555
S1132D8087950A94E2F780FF12C0F801EE0FFF1F47
S1132D90EE0FFF1FEA5FFE4FEC0FFD1F80810E94C4
S1132DA01D148FE493EC0197F1F700C00000219605
S1132DB0C430D10504F315B80F5F1F4F043011055B
S1132DC044F2DF91CF911F910F9108950E94260143
S1132DD00E94CF138AE691E00E9410010E94A2167D
S1132DE083EC99E00197F1F700C00000F7CF505849
S1132DF0BB27AA270E940F170C940F190E94D618FC
S1132E0038F00E94DD1820F039F49F3F19F426F4BD
S1132E100C94AC180EF4E095E7FB0C94A618E92F7B
S1132E200E94341958F3BA17620773078407950789
S1132E3020F079F4A6F50C9456190EF4E0950B2EB7
S1132E40BA2FA02D0B01B90190010C01CA01A001F8
S1132E501124FF27591B99F0593F50F4503E68F153
S1132E601A16F040A22F232F342F4427585FF3CF94
S1132E70469537952795A795F0405395C9F77EF465
S1132E801F16BA0B620B730B840BBAF09150A1F0AE
S1132E90FF0FBB1F661F771F881FC2F70EC0BA0F34
S1132EA0621F731F841F48F4879577956795B795BC
S1132EB0F7959E3F08F0B0CF9395880F08F09927B7
S1132EC0EE0F979587950895DF93DD27B92FBF7788
S1132ED040E85FE31616170648075B0718F4D92F76
S1132EE00E9462199F938F937F936F930E942F1A6E
S1132EF0E8E6F0E00E94AF180E940F192F913F916D
S1132F004F915F910E947D19DD2351F09058A2EA00
S1132F102AED3FE049EC5FE3D0785D270E940F176C
S1132F20DF910C940F190E94821808F481E008952F
S1132F300E94E618E3950C9420190E94B1170C9492
S1132F400F190E94DD1858F00E94D61840F029F499
S1132F505F3F29F00C94A61851110C9457190C9446
S1132F60AC180E94341968F39923B1F3552391F3F3
S1132F70951B550BBB27AA2762177307840738F0E4
S1132F809F5F5F4F220F331F441FAA1FA9F335D041
S1132F900E2E3AF0E0E832D091505040E695001CF5
S1132FA0CAF72BD0FE2F29D0660F771F881FBB1FAF
S1132FB0261737074807AB07B0E809F0BB0B802D8D
S1132FC0BF01FF2793585F4F3AF09E3F510578F0B9
S1132FD00C94A6180C9457195F3FE4F3983ED4F36D
S1132FE0869577956795B795F7959F5FC9F7880F8D
S1132FF0911D9695879597F90895E1E0660F771FDF
S1133000881FBB1F621773078407BA0720F0621B6F
S1133010730B840BBA0BEE1F88F7E09508950E949A
S113302016186894B1110C94571908950E943C190C
S113303088F09F5798F0B92F9927B751B0F0E1F075
S1133040660F771F881F991F1AF0BA95C9F714C025
S1133050B13091F00E945619B1E008950C945619BC
S1133060672F782F8827B85F39F0B93FCCF386955E
S113307077956795B395D9F73EF4909580957095BB
S113308061957F4F8F4F9F4F0895E89409C097FB38
S11330903EF490958095709561957F4F8F4F9F4F2B
S11330A09923A9F0F92F96E9BB279395F69587956F
S11330B077956795B795F111F8CFFAF4BB0F11F432
S11330C060FF1BC06F5F7F4F8F4F9F4F16C08823D9
S11330D011F096E911C0772321F09EE8872F762F0F
S11330E005C0662371F096E8862F70E060E02AF050
S11330F09A95660F771F881FDAF7880F969587953C
S113310097F90895990F0008550FAA0BE0E8FEEF10
S113311016161706E807F907C0F012161306E40797
S1133120F50798F0621B730B840B950B39F40A2690
S113313061F0232B242B252B21F408950A2609F46E
S1133140A140A6958FEF811D811D089597F99F6772
S113315080E870E060E008959FEF80EC0895DF93CD
S1133160CF931F930F93FF92EF92DF927B018C0119
S1133170689406C0DA2EEF010E947D19FE01E894DE
S1133180A5912591359145915591A6F3EF010E94A2
S11331900F17FE019701A801DA9469F7DF90EF9009
S11331A0FF900F911F91CF91DF91089500240A940D
S11331B01616170618060906089500240A9412160E
S11331C013061406050608950C94AC180E943C19C5
S11331D0D8F3E894E0E0BB279F57F0F02AED3FE0F6
S11331E049EC06C0EE0FBB0F661F771F881F28F03F
S11331F0B23A62077307840728F0B25A620B730B62
S1133200840BE3959A9572F7803830F49A95BB0F46
S1133210661F771F881FD2F790480C946F1A092EE7
S11332200394000C11F4882352F0BB0F40F4BF2B1D
S113323011F460FF04C06F5F7F4F8F4F9F4F08955D
S1133240EF93E0FF07C0A2EA2AED3FE049EC5FEB11
S11332500E940F170E940F190F90039401FC9058BD
S1133260E5E9F0E00C947B1A57FD9058440F551F84
S113327059F05F3F71F04795880F97FB991F61F0F4
S11332809F3F79F087950895121613061406551F6B
S1133290F2CF4695F1DF08C0161617061806991FD7
S11332A0F1CF86957105610508940895E894BB27CC
S11332B066277727CB0197F908950E94821808F4AE
S11332C08FEF08959B01AC0160E070E080E89FE31C
S11332D00C949D170E947D190C940F190E94D61806
S11332E038F00E94DD1820F0952311F00C94A618F4
S11332F00C94AC1811240C9457190E94341970F3CF
S1133300959FC1F3950F50E0551F629FF001729F86
S1133310BB27F00DB11D639FAA27F00DB11DAA1F95
S1133320649F6627B00DA11D661F829F2227B00DE2
S1133330A11D621F739FB00DA11D621F839FA00D6D
S1133340611D221F749F3327A00D611D231F849FBD
S1133350600D211D822F762F6A2F11249F57504014
S11333609AF0F1F088234AF0EE0FFF1FBB1F661F8F
S1133370771F881F91505040A9F79E3F510580F058
S11333800C94A6180C9457195F3FE4F3983ED4F3B9
S1133390869577956795B795F795E7959F5FC1F7FC
S11333A0FE2B880F911D9695879597F90895FA013C
S11333B0EE0FFF1F309621053105A1F1611571054E
S11333C061F48038BFE39B0749F168949038810524
S11333D061F08038BFEF9B0741F099234AF5FF3F26
S11333E0E1053105210519F1E8940894E795D9011F
S11333F0AA2329F4AB2FBE2FF85FD0F310C0FF5FD0
S113340070F4A695E0F7F73950F019F0FF3A38F464
S11334109F779F930DD00F9007FC9058089546F026
S11334200C94AC1860E070E080E89FE308954FE7E7
S11334309F775F934F933F932F930E94D11A2F91BD
S11334403F914F915F910E946A190C943B1A9F938C
S11334500E94E6180F9007FCEE5F0C9420199B0164
S1133460AC010C946A1929F416F00C94A6180C9467
S113347056190C94AC180E943C19A8F39638A0F77E
S113348007F80F92E8942BE33AEA48EB5FE70E94CF
S113349080190F920F920F924DB75EB70F920E9450
S11334A0191BE3EBF0E00E94AF184F915F91EF918D
S11334B0FF91E595EE1FFF1F49F0FE57E068442792
S11334C0EE0F441FFA95E1F74195550B0E94931AAC
S11334D00F9007FE0C94621908959F3F31F09150AC
S11334E020F4879577956795B795880F911D9695E4
S11334F0879597F908959F938F937F936F93FF9385
S1133500EF939B01AC010E946A19EF91FF910E9415
S1133510AF182F913F914F915F910C946A190C94BD
S1133520A6180C946D1A0E943C19D8F39923C9F378
S1133530940F511DA3F39150504094F059F08823F7
S113354032F0660F771F881F91505040C1F79E3F9D
S113355051052CF7880F911D9695879597F9089535
S11335605F3FACF0983E9CF0BB27869577956795B6
S1133570B79508F4B1609395C1F7BB0F58F711F4F0
S113358060FFE8CF6F5F7F4F8F4F9F4FE3CF0C9467
S1133590571916F00C946D1A0C94AC1868940C948A
S11335A0A6180E943C19A8F39923C1F3AEF3DF9344
S11335B0CF931F930F93FF92C92FDD2788232AF0FF
S11335C02197660F771F881FDAF720E030E040E884
S11335D05FEB9FE3883920F0803E38F021968F77A7
S11335E00E94F816EBEDF0E004C00E94F816E8E043
S11335F0F1E00E94AF188B01BE01EC01FB2E6F5766
S113360071097595771F880B990B0E94471828E15B
S113361032E741E35FE30E947D19AF2D9801AE01CB
S1133620FF900F911F91CF91DF910E940F170C947F
S11336300F19FA01DC01AA0FBB1F9B01AC01BF5794
S113364028F4222733274427507820C0B75190F418
S1133650AB2F0024469537952795011CA395D2F3EB
S1133660002071F0220F331F441FB395DAF30ED0FC
S11336700C94F71661307105A0E88A07B94630F456
S11336809B01AC016627772788279078309621F034
S11336902083318342835383089597FB072E16F4C6
S11336A0009407D077FD09D00E94611B07FC05D068
S11336B03EF4909581959F4F0895709561957F4F45
S11336C00895AA1BBB1B51E107C0AA1FBB1FA61765
S11336D0B70710F0A61BB70B881F991F5A95A9F7B7
S11336E080959095BC01CD0108950F931F93CF93BE
S11336F0DF938230910510F482E090E0E0914B0278
S1133700F0914C0220E030E0A0E0B0E0309719F1F5
S1133710408151810281138148175907C8F08417E9
S1133720950769F4109731F012960C93129713963B
S11337301C9327C000934B0210934C0222C0211506
S1133740310519F04217530718F49A01BD01EF012E
S1133750DF01F801DBCF21153105F9F0281B390B06
S11337602430310580F48A819B816115710521F033
S1133770FB019383828304C090934C0280934B0299
S1133780FE01329644C0FE01E20FF31F8193919330
S113379022503109398328833AC02091490230915B
S11337A04A02232B41F4209102013091030130930A
S11337B04A02209349022091000130910101211510
S11337C0310541F42DB73EB74091040150910501F4
S11337D0241B350BE0914902F0914A02E217F307EA
S11337E0A0F42E1B3F0B2817390778F0AC014E5F6D
S11337F05F4F2417350748F04E0F5F1F50934A025E
S1133800409349028193919302C0E0E0F0E0CF013C
S1133810DF91CF911F910F910895CF93DF9300977C
S113382009F481C0FC01329713821282A0914B02E9
S1133830B0914C02109781F420813181820F931F43
S11338402091490230914A022817390751F5F09323
S11338504A02E093490267C0ED0120E030E0CE1750
S1133860DF0740F44A815B819E0141155105F1F067
S1133870EA01F5CFD383C28340815181840F951F20
S1133880C817D90759F488819981840F951F029626
S1133890918380838A819B8193838283211531055F
S11338A029F4F0934C02E0934B023DC0E901FB8301
S11338B0EA8349915991C40FD51FEC17FD0761F4B0
S11338C080819181840F951F0296E90199838883F1
S11338D0828193819B838A83E0E0F0E012968D914C
S11338E09C911397009719F0FD01DC01F7CF8D919E
S11338F09C9111979D012E5F3F4F820F931F209142
S1133900490230914A022817390769F4309729F49B
S113391010924C0210924B0202C013821282B09396
S11339204A02A0934902DF91CF910895AEE0B0E03E
S1133930ECE9FCE10C94571F0D891E8986E08C8309
S11339401A8309838FEF9FE79E838D83AE01475EC1
S11339505F4F6F89788DCE0101960E94B81CEF816C
S1133960F885E00FF11F10822E96E4E00C94731F8B
S1133970ABE0B0E0EEEBFCE10C94491F6C017B0181
S11339808A01FC0117821682838181FFCCC1CE019A
S113399001963C01F6019381F70193FD859193FF14
S11339A081917F01882309F4BAC1853239F493FDEA
S11339B0859193FF81917F01853229F4B60190E0CE
S11339C00E94AF1EE7CF912C212C312CFFE1F3157F
S11339D0D8F08B3279F038F4803279F08332A1F464
S11339E0232D20611DC08D3261F0803369F4232DB5
S11339F0216016C0832D8260382EE32DE4603E2EB4
S1133A002AC0F32DF8601DC037FC2DC020ED280F0F
S1133A102A3040F08E32B9F436FC81C1232D206463
S1133A20322E19C036FE06C08AE0989E200D11245D
S1133A30922E11C0EAE02E9E200D1124222EF32D89
S1133A40F0623F2E08C08C3621F4832D8068382E16
S1133A5002C0883641F4F70193FD859193FF81916B
S1133A607F018111B3CF982F9F7D9554933028F413
S1133A700C5F1F4F9FE399830DC0833631F083376A
S1133A8071F0833509F059C021C0F8018081898320
S1133A900E5F1F4F88248394912C530113C0280177
S1133AA0F2E04F0E511CF801A080B18036FE03C035
S1133AB0692D70E002C06FEF7FEFC5010E94A41E64
S1133AC04C018201F32DFF773F2E16C0280122E01E
S1133AD0420E511CF801A080B18036FE03C0692D4E
S1133AE070E002C06FEF7FEFC5010E94991E4C0188
S1133AF0F32DF0683F2E820133FC1BC0822D90E031
S1133B0088169906B0F4B60180E290E00E94AF1ED8
S1133B102A94F4CFF50137FC859137FE81915F013A
S1133B20B60190E00E94AF1E21102A9421E0821A6F
S1133B3091088114910471F7E8C0843611F0893634
S1133B4041F5F80137FE07C060817181828193815C
S1133B500C5F1F4F08C060817181072E000C880B19
S1133B60990B0E5F1F4FF32DFF763F2E97FF09C071
S1133B7090958095709561957F4F8F4F9F4FF0681A
S1133B803F2E2AE030E0A3010E94EB1E882E861807
S1133B9045C0853731F4232D2F7EB22E2AE030E044
S1133BA025C0932D997FB92E8F36C1F018F488352E
S1133BB079F0B5C0803719F0883721F0B0C0E92F0B
S1133BC0E061BE2EB4FE0DC0FB2DF460BF2E09C013
S1133BD034FE0AC0292F2660B22E06C028E030E049
S1133BE005C020E130E002C020E132E0F801B7FE78
S1133BF007C060817181828193810C5F1F4F06C071
S1133C006081718180E090E00E5F1F4FA3010E94EC
S1133C10EB1E882E8618FB2DFF773F2E36FE0DC037
S1133C20232D2E7FA22E891458F434FE0BC032FCAF
S1133C3009C0832D8E7EA82E05C0B82CA32C03C0EA
S1133C40B82C01C0B92CA4FE0FC0FE01E80DF11D73
S1133C508081803321F49A2D997EA92E09C0A2FE79
S1133C6006C0B394B39404C08A2D867809F0B39443
S1133C70A3FC11C0A0FE06C0B21488F4280C922C38
S1133C809B180EC0B21460F4B60180E290E00E946A
S1133C90AF1EB394F7CFB21418F42B1802C0982CAB
S1133CA0212CA4FE10C0B60180E390E00E94AF1E58
S1133CB0A2FE17C0A1FC03C088E790E002C088E51B
S1133CC090E0B6010CC08A2D867859F0A1FE02C09E
S1133CD08BE201C080E2A7FC8DE2B60190E00E9475
S1133CE0AF1E891438F4B60180E390E00E94AF1E41
S1133CF09A94F7CF8A94F301E80DF11D8081B601FF
S1133D0090E00E94AF1E8110F5CF222009F442CE2C
S1133D10B60180E290E00E94AF1E2A94F6CFF6012D
S1133D208681978102C08FEF9FEF2B96E2E10C947E
S1133D30651FFC010590615070400110D8F7809513
S1133D4090958E0F9F1F0895FC0161507040019063
S1133D500110D8F7809590958E0F9F1F08950F93AB
S1133D601F93CF93DF93FB01238121FD03C08FEFCA
S1133D709FEF2CC022FF16C04681578124813581D4
S1133D804217530744F4A081B1819D012F5F3F4F37
S1133D90318320838C93268137812F5F3F4F378374
S1133DA0268314C08B01EC01FB010084F185E02D16
S1133DB00995892BE1F6D80116968D919C91179758
S1133DC0019617969C938E931697CE01DF91CF910F
S1133DD01F910F910895FA01AA27283051F120313B
S1133DE081F1E8946F936E7F6E5F7F4F8F4F9F4F8B
S1133DF0AF4FB1E03ED0B4E03CD0670F781F891FCD
S1133E009A1FA11D680F791F8A1F911DA11D6A0F9A
S1133E10711D811D911DA11D20D009F468943F914D
S1133E202AE0269F11243019305D3193DEF6CF014C
S1133E300895462F4770405D4193B3E00FD0C9F712
S1133E40F6CF462F4F70405D4A3318F0495D31FD7F
S1133E504052419302D0A9F7EACFB4E0A6959795D2
S1133E60879577956795BA95C9F7009761057105A8
S1133E7008959B01AC010A2E0694579547953795F2
S1133E802795BA95C9F7620F731F841F951FA01D4C
S1133E9008952F923F924F925F926F927F928F92EA
S1133EA09F92AF92BF92CF92DF92EF92FF920F93C5
S1133EB01F93CF93DF93CDB7DEB7CA1BDB0B0FB6CF
S1133EC0F894DEBF0FBECDBF09942A88398848888C
S1133ED05F846E847D848C849B84AA84B984C88422
S1133EE0DF80EE80FD800C811B81AA81B981CE0F19
S1133EF0D11D0FB6F894DEBF0FBECDBFED010895FE
S1073F00F894FFCF5F
S1133F0400004D0220003132334134353642373813
S1133F1439432D302E73760181018B019801A5015B
S1133F24B001BB01C601D101DA01E201E70152612A
S1133F346E67653A20256420506174683A20252E02
S1133F443266004D4F413A20252E32662057696E61
S1133F54643A20252E32660057696E6461676520D1
S1133F644D4F413A20252E32660044726167204346
S1133F746F6566663A004472616720436F656666DE
S1133F8400496E69742056656C6F005369676874E0
S1133F942048656967687400536874696E672041D2
S1133FA46E676C650057696E6420537065656400C0
S1133FB457696E6420416E676C65005A65726F20A0
S1133FC452616E67650079496E74657263657074D5
S1133FD400416C746974756465004261726F6D7438
S1133FE4720054656D700052656C617448756D6936
S1053FF4640063
S9030000FC
