:100000000C949B000C94B8000C94B8000C94B800AD
:100010000C94B8000C94B8000C94B8000C94B80080
:100020000C94B8000C94B8000C94B8000C94B80070
:100030000C94B8000C94B8000C94B8000C94B80060
:100040000C94B8000C94B8000C94B8000C94B80050
:100050000C94B8000C94B8000C94B8000C94B80040
:100060000C94B8000C94B800084AD73B3BCE016E04
:1000700084BCBFFDC12F3D6C74319ABD56833DDAFF
:100080003D00C77F11BED9E4BB4C3E916BAAAABE0E
:10009000000000803F05A84CCDB2D44EB93836A937
:1000A000020C50B9918688083CA6AAAA2ABE000074
:1000B00000803F07634236B79BD8A71A39685618A5
:1000C000AEBAAB558C1D3CB7CC5763BD6DEDFD751D
:1000D0003EF6177231BF000000803F08000000BEEE
:1000E000922449123EABAAAA2ABECDCCCC4C3E00EB
:1000F000000080BEABAAAAAA3E00000000BF00001C
:1001000000803F0000000000084178D3BB4387D146
:10011000133D190E3CC3BD4282AD2B3E68EC827686
:10012000BED98FE1A93E4C80EFFFBE01C4FF7F3FE7
:1001300000000000000011241FBECFEFD4E0DEBF9E
:10014000CDBF11E0A0E0B1E0E8E1FDE302C0059021
:100150000D92A63AB107D9F721E0A6EAB1E001C0B5
:100160001D92AD3FB207E1F70E940E170C948A1E54
:100170000C9400009BB19F70282F207F922B9BB97D
:100180009BB19E7F9BB99BB192609BB932E03A953F
:10019000F1F700C09BB19D7F9BB9EFE8F1E031978B
:1001A000F1F700C000002BB1F0E18F9FC0011124D6
:1001B000922F9F70892B8BB98BB182608BB932E003
:1001C0003A95F1F700C08BB18D7F8BB98FE99FE035
:1001D0000197F1F700C0000008959BB19F70282F90
:1001E000207F922B9BB99BB191609BB99BB1926090
:1001F0009BB932E03A95F1F700C09BB19D7F9BB966
:10020000EFE8F1E03197F1F700C000002BB1F0E129
:100210008F9FC0011124922F9F70892B8BB98BB1B6
:1002200082608BB932E03A95F1F700C08BB18D7FD7
:100230008BB98FE99FE00197F1F700C000000895A6
:100240000F931F93CF93DF938C01C0E0D0E003C0E6
:100250000E94ED002196F801EC0FFD1F80818111B5
:10026000F7CFDF91CF911F910F9108958FEF8AB94A
:100270008FE39CE90197F1F700C0000082E00E9443
:10028000BA0088E20E94BA008CE00E94BA0086E0C0
:100290000E94BA0081E00E94BA008FE99FE00197B6
:1002A000F1F700C0000008952BED3FE049E450E471
:1002B0000E94951920E030E044E353E40E94C817FF
:1002C000089520E030E040E752E40E94C8172BED8B
:1002D0003FE049E450E40E94951920E030E044E317
:1002E00053E40E94C817089520E030E044E353E44B
:1002F0000E9495192BED3FE049E450E40E94C81795
:10030000089520E030E040E752E40E94951920E093
:1003100030E044E353E40E9495192BED3FE049E4BB
:1003200050E40E94C81708954F925F926F927F9297
:100330008F929F92AF92BF92CF92DF92EF92FF92F5
:100340000F931F93CF93DF9300D000D0CDB7DEB7CC
:1003500049835A836B837C836801790185309105D9
:1003600009F436C23CF48130910571F0029709F42A
:10037000D8C195C38730910509F4D8C20CF47FC267
:10038000089709F440C38BC320E030E344E855E408
:10039000C701B6010E94881918160CF48BC320E01F
:1003A00030E046E655E4C701B6010E9488191816E8
:1003B0000CF495C320E030EA47E555E4C701B601E7
:1003C0000E94881918160CF49EC320E030EF4DE40B
:1003D00055E4C701B6010E94881918160CF4A6C38B
:1003E00020E030EA43E455E4C701B6010E948819D1
:1003F00018160CF4B0C320E030E049E355E4C7011F
:10040000B6010E94881918160CF4B9C320E030EE2A
:1004100040E355E4C701B6010E94881918160CF490
:10042000C3C320E030E847E255E4C701B6010E94AB
:10043000881918160CF4CCC320E030EC49E155E4DF
:10044000C701B6010E94881918160CF4D4C320E025
:1004500030E14BE055E4C701B6010E948819181637
:100460000CF4DEC320E030EE4BEF54E4C701B601DC
:100470000E94881918160CF4E7C320E030E44CEE13
:1004800054E4C701B6010E94881918160CF4F0C391
:1004900020E030E442EE54E4C701B6010E9488191E
:1004A00018160CF4F8C320E030E448ED54E4C7011A
:1004B000B6010E94881918160CF401C420E030E639
:1004C00047EC54E4C701B6010E94881918160CF4D1
:1004D00009C420E030E04EEB54E4C701B6010E94AD
:1004E000881918160CF413C420E030E841EB54E4EA
:1004F000C701B6010E94881918160CF41DC420E02B
:1005000030E04AEA54E4C701B6010E94881918167F
:100510000CF423C420E030E644EA54E4C701B601F9
:100520000E94881918160CF42BC420E030E040EA31
:1005300054E4C701B6010E94881918160CF433C49C
:1005400020E030E848E954E4C701B6010E94881968
:1005500018160CF43BC420E030E244E954E4C7012F
:10056000B6010E94881918160CF443C420E030EC40
:100570004FE854E4C701B6010E94881918160CF41C
:100580004BC420E030E849E854E4C701B6010E94BA
:10059000881918160CF453C420E030E844E854E4F9
:1005A000C701B6010E94881918160CF45BC420E03C
:1005B00030E240E854E4C701B6010E9488191816D9
:1005C0000CF463C420E030E045E754E4C701B60111
:1005D0000E94881918160CF46BC420E030E44CE635
:1005E00054E4C701B6010E94881918160CF473C4AC
:1005F00020E030E442E654E4C701B6010E948819C5
:1006000018160CF47BC420E030E047E554E4C70141
:10061000B6010E94881918160CF483C420E030E853
:100620004AE454E4C701B6010E94881918160CF474
:100630008BC420E030E043E454E4C701B6010E94DB
:10064000881918160CF493C420E030E84BE354E406
:10065000C701B6010E94881918160CF49BC420E04B
:1006600030E04FE254E4C701B6010E948819181621
:100670000CF4A3C420E030E040E254E4C701B6012A
:100680000E94881918160CF4ABC420E030E046E153
:1006900054E4C701B6010E94881918160CF4B1C4BD
:1006A00020E030E849E054E4C701B6010E9488190F
:1006B00018160CF4BBC420E030E04AE753E4C7014D
:1006C000B6010E94881918160CF4C3C420E030E06B
:1006D00048EC52E4C701B6010E94881918160CF4C0
:1006E000CBC420E030E042E852E4C701B6010E94EA
:1006F000881918160CF4D4C420E030E0A901C70111
:10070000B6010E94881918160CF4DFC40F2E412C74
:10071000512CF0E86F2EFFEB7F2EF02D530142019C
:10072000D2C720E030E441ED54E4C701B6010E9495
:10073000881918160CF4D9C420E030E842E954E4D2
:10074000C701B6010E94881918160CF4E3C420E012
:1007500030E844E854E4C701B6010E94881918162D
:100760000CF4EDC420E030E44DE654E4C701B601DA
:100770000E94881918160CF4F7C420E030E847E20C
:1007800054E4C701B6010E94881918160CF401C57B
:1007900020E030E847EA53E4C701B6010E94881917
:1007A00018160CF40BC520E030E0A901C701B60112
:1007B0000E94881918160CF416C50F2E412C512CC6
:1007C000F0E86F2EFFEB7F2EF02D530142017BC727
:1007D00020E030E448ED54E4C701B6010E948819D6
:1007E00018160CF415C520E030E849E954E4C701B7
:1007F000B6010E94881918160CF41FC520E030E8D5
:100800004BE854E4C701B6010E94881918160CF48D
:1008100029C520E030E04BE754E4C701B6010E944F
:10082000881918160CF433C520E030E441E554E48F
:10083000C701B6010E94881918160CF43DC520E0C6
:1008400030E847EA53E4C701B6010E948819181638
:100850000CF447C520E030E0A901C701B6010E94B1
:10086000881918160CF451C50F2E412C512CF0E8A4
:100870006F2EFFEB7F2EF02D5301420124C720E0A5
:1008800030E44AE455E4C701B6010E9488191816FD
:100890000CF44FC520E030E141E055E4C701B6015A
:1008A0000E94881918160CF459C520E030EE43EA6E
:1008B00054E4C701B6010E94881918160CF463C5E8
:1008C00020E030E04FE854E4C701B6010E948819E7
:1008D00018160CF46DC520E030E04BE754E4C70176
:1008E000B6010E94881918160CF477C520E030E88C
:1008F00047E254E4C701B6010E94881918160CF4A7
:1009000081C520E030E0A901C701B6010E94881925
:1009100018160CF48CC50F2E412C512CF0E86F2EBC
:10092000FFEB7F2EF02D53014201CDC620E030E4D5
:1009300043E855E4C701B6010E94881918160CF463
:100940008BC520E030E84BE355E4C701B6010E94B7
:10095000881918160CF495C520E030EC47EB54E4E8
:10096000C701B6010E94881918160CF49FC520E033
:1009700030E84DE954E4C701B6010E948819181601
:100980000CF4A9C520E030EC4AE854E4C701B601F4
:100990000E94881918160CF4B3C520E030E040E737
:1009A00054E4C701B6010E94881918160CF4BDC59D
:1009B00020E030E847E254E4C701B6010E948819FC
:1009C00018160CF4C6C520E030E047E054E4C70137
:1009D000B6010E94881918160CF4D0C520E030E04A
:1009E000A901C701B6010E94881918160CF4DBC5CD
:1009F0000F2E412C512CF0E86F2EFFEB7F2EF02DA7
:100A00005301420160C620E030E34FE555E4C701E1
:100A1000B6010E94881918160CF4DAC520E030E2FD
:100A200046EE54E4C701B6010E94881918160CF46A
:100A3000E4C520E030E04CE854E4C701B6010E9470
:100A4000881918160CF4EEC520E030E048E854E4AC
:100A5000C701B6010E94881918160CF4F8C520E0E9
:100A600030E044E754E4C701B6010E948819181623
:100A70000CF401C620E030E0A901C701B6010E94D4
:100A8000881918160CF40CC60F2E412C512CF0E8C6
:100A90006F2EFFEB7F2EF02D5301420114C60F2E57
:100AA000412C512CF0E86F2EFFEB7F2EF02D5301DF
:100AB000420109C60F2EF8E94F2EFEE65F2EFAEF2F
:100AC0006F2EFFE37F2EF02D0F2EF4EC8F2EFAEE1B
:100AD0009F2EFAE1AF2EF9E3BF2EF02DF4C50F2EB5
:100AE000F6E64F2E542CF6EF6F2EFFE37F2EF02DFF
:100AF0000F2EF7EB8F2EFCE59F2EF9E4AF2EF9E3D6
:100B0000BF2EF02DE0C50F2E412C512CF0EF6F2E93
:100B1000FFE37F2EF02D0F2EF1EB8F2EF4EC9F2EA6
:100B2000F7E9AF2EF9E3BF2EF02DCDC50F2EFAE970
:100B30004F2EF9E95F2EF9EE6F2EFFE37F2EF02D99
:100B40000F2EF0E78F2EFFE09F2EF4EEAF2EF9E38D
:100B5000BF2EF02DB8C50F2EF3E34F2E542CF3EE1D
:100B60006F2EFFE37F2EF02D0F2EFFEC8F2EFDEE6C
:100B70009F2EFAE2AF2EFAE3BF2EF02DA4C50F2E62
:100B8000FDEC4F2EFCEC5F2EFCED6F2EFFE37F2E75
:100B9000F02D0F2EF7E38F2EFAE89F2EFFE7AF2EF2
:100BA000FAE3BF2EF02D8FC50F2EF6E64F2E542CF4
:100BB000F6ED6F2EFFE37F2EF02D0F2EFDEC8F2E26
:100BC000FAE89F2EFEEBAF2EFAE3BF2EF02D7BC589
:100BD0000F2E412C512CF0ED6F2EFFE37F2EF02DC8
:100BE0000F2EFAE38F2EFFEB9F2EFDE0AF2EFBE3DF
:100BF000BF2EF02D68C50F2EFAE94F2EF9E95F2EB2
:100C0000F9EC6F2EFFE37F2EF02D0F2EFAE78F2EDB
:100C1000F7E59F2EF2E5AF2EFBE3BF2EF02D53C577
:100C20000F2EF6E64F2E542CF6EC6F2EFFE37F2EA0
:100C3000F02D0F2EFEE68F2EF0EE9F2EFFE7AF2E4B
:100C4000FBE3BF2EF02D3FC50F2EFAE94F2EF9E939
:100C50005F2EF9EC6F2EFFE37F2EF02D0F2E812CEF
:100C6000F8E39F2EF3E5AF2EFBE3BF2EF02D2BC54F
:100C70000F2E412C512CF0ED6F2EFFE37F2EF02D27
:100C80000F2EFCEB8F2EF5E69F2EF0E1AF2EFBE34F
:100C9000BF2EF02D18C50F2EF6E64F2E542CF6ED74
:100CA0006F2EFFE37F2EF02D0F2EF8EC8F2EFCE041
:100CB0009F2EF6ECAF2EFAE3BF2EF02D04C50F2EBB
:100CC000412C512CF0EE6F2EFFE37F2EF02D0F2ED6
:100CD000F3E78F2EF4EB9F2EF1E6AF2EFAE3BF2E53
:100CE000F02DF1C40F2EFDEC4F2EFCEC5F2EFCEE30
:100CF0006F2EFFE37F2EF02D0F2EF5E58F2EFBE3F9
:100D00009F2EF6EDAF2EF9E3BF2EF02DDCC40F2E93
:100D1000FAE94F2EF9E95F2EF9EF6F2EFFE37F2EF0
:100D2000F02D0F2EFEEF8F2EF0EF9F2EFCE4AF2E56
:100D3000F9E3BF2EF02DC7C4412C512C3201689429
:100D400063F876F80F2EFBE88F2EF4ED9F2EF3E676
:100D5000AF2EF8E3BF2EF02DB6C40F2E412C512C30
:100D6000F8E16F2EF0E47F2EF02D0F2EF4EC8F2E95
:100D7000F0E79F2EF4E1AF2EF7E3BF2EF02DA3C4D2
:100D80000F2E412C512CF8E26F2EF0E47F2EF02D27
:100D90000F2EF8E78F2EFBE89F2EF3ECAF2EF5E336
:100DA000BF2EF02D90C40F2E412C512CF8E36F2E46
:100DB000F0E47F2EF02D0F2EF7E28F2EF5EE9F2E12
:100DC000F1E8AF2EF4E3BF2EF02D7DC40F2E412CA1
:100DD000512CF0E56F2EF0E47F2EF02D0F2EF8ED64
:100DE0008F2EFAE69F2EFEE8AF2EF2E3BF2EF02DF7
:100DF0006AC40F2E412C512CF0E76F2EF0E47F2EA9
:100E0000F02D0F2EF6E48F2EF1E79F2EF2E0AF2E9D
:100E1000F0E3BF2EF02D57C40F2E412C512CF8E8D3
:100E20006F2EF0E47F2EF02D0F2EF3E48F2EFAEBD1
:100E30009F2EF2E7AF2EFDE2BF2EF02D44C40F2E01
:100E4000412C512CF8E96F2EF0E47F2EF02D0F2E5F
:100E5000F8E28F2EF1E29F2EF5EEAF2EFAE2BF2ED2
:100E6000F02D31C40F2E412C512CF4EA6F2EF0E4FA
:100E70007F2EF02D0F2EF1E98F2EF3E59F2EF4E05B
:100E8000AF2EF9E2BF2EF02D1EC40F2E412C512C97
:100E9000F8EA6F2EF0E47F2EF02D0F2EFEE08F2E5D
:100EA000F3E59F2EFDE5AF2EF8E2BF2EF02D0BC42B
:100EB0000F2E412C512CF4EA6F2EF0E47F2EF02DF2
:100EC0000F2EF2E08F2EFEE59F2EF3E0AF2EF9E21B
:100ED000BF2EF02DF8C30F2E412C512CF8E96F2EA8
:100EE000F0E47F2EF02D0F2EF6ED8F2EF5E09F2EE5
:100EF000F9EDAF2EFAE2BF2EF02DE5C30F2E412CF7
:100F0000512CF8E86F2EF0E47F2EF02D0F2EF7E035
:100F10008F2EFCE79F2EF0E5AF2EFDE2BF2EF02DC9
:100F2000D2C30F2E412C512CF0E76F2EF0E47F2E10
:100F3000F02D0F2EFFEC8F2EFCE09F2EF4ECAF2E49
:100F4000FFE2BF2EF02DBFC30F2E412C512CF0E538
:100F50006F2EF0E47F2EF02D0F2EF9E28F2EFEE99A
:100F60009F2EF3E3AF2EF2E3BF2EF02DACC30F2E76
:100F7000412C512CF8E36F2EF0E47F2EF02D0F2E34
:100F8000FDE18F2EF3EA9F2EFAE0AF2EF4E3BF2EA1
:100F9000F02D99C30F2E412C512CF8E26F2EF0E466
:100FA0007F2EF02D0F2EFFE18F2EF1E39F2EF7E322
:100FB000AF2EF5E3BF2EF02D86C30F2E412C512C02
:100FC000F8E16F2EF0E47F2EF02D0F2EFEED8F2E28
:100FD000F5E89F2EFFE6AF2EF6E3BF2EF02D73C38C
:100FE000412C512C3201689463F876F80F2EFCE8FE
:100FF0008F2EF4E49F2EFAE9AF2EF7E3BF2EF02DEB
:1010000062C30F2EFAE94F2EF9E95F2EF9EF6F2E2A
:10101000FFE37F2EF02D0F2EF5E48F2EFBE89F2EA1
:10102000FFE6AF2EF8E3BF2EF02D4DC30F2E412C5F
:10103000512CF0EF6F2EFFE37F2EF02D0F2EF4EBEF
:101040008F2EFEE79F2EF1ECAF2EF8E3BF2EF02D92
:101050003AC30F2E412C512CF0EF6F2EFFE37F2E61
:10106000F02D0F2EF6EF8F2EF4ED9F2EF3ECAF2E1A
:10107000F8E3BF2EF02D27C30F2EF6E64F2E542C8B
:10108000F6EF6F2EFFE37F2EF02D0F2EF0E48F2E64
:10109000F6E89F2EF7E9AF2EF8E3BF2EF02D13C32D
:1010A0000F2EFDEC4F2EFCEC5F2EFCEF6F2EFFE3BE
:1010B0007F2EF02D0F2EFBE78F2EF6EF9F2EF2E7FF
:1010C000AF2EF8E3BF2EF02DFEC2412C512C320181
:1010D000689476F80F2EFCE48F2EFDE59F2EFAE53E
:1010E000AF2EF8E3BF2EF02DEEC20F2EF1E24F2E01
:1010F000FCE55F2EFFEA6F2EFFE37F2EF02D0F2E13
:10110000F8E28F2EF4E39F2EF2E0AF2EFCE3BF2E29
:10111000F02DD9C20F2EFAEB4F2EF3EB5F2EF3ED2D
:101120006F2EFFE37F2EF02D0F2EF8E48F2EFFE9B8
:101130009F2EF3E8AF2EFAE3BF2EF02DC4C20F2E80
:10114000FFE84F2EF9E65F2EFDEF6F2EF0E47F2EC5
:10115000F02D0F2EF7EB8F2EF3E09F2EFDEAAF2E32
:10116000FAE1BF2EF02DAFC20F2EFEE04F2EFFE1B1
:101170005F2EF4E76F2EF0E47F2EF02D0F2EFAE0B5
:101180008F2EFBE79F2EF9E1AF2EFFE2BF2EF02D51
:101190009AC20F2EF6E34F2EFEEF5F2EFBED6F2E61
:1011A000FFE37F2EF02D0F2EF3EB8F2EFFEB9F2E04
:1011B000F5E7AF2EF9E3BF2EF02D85C20F2EFCE32D
:1011C0004F2EF7E65F2EF2EE6F2EFFE37F2EF02D0F
:1011D0000F2EFEE68F2EFBE99F2EFAE3AF2EF9E3EA
:1011E000BF2EF02D70C20F2EF8E24F2EF5EA5F2EC3
:1011F000FDEF6F2EFFE37F2EF02D0F2EFEE68F2EDC
:10120000F7E49F2EF9E5AF2EF8E3BF2EF02D5BC279
:101210000F2EFCE54F2EFBE25F2EF5EB6F2EFFE36A
:101220007F2EF02D0F2EFAE38F2EF5E89F2EFDEE88
:10123000AF2EFBE3BF2EF02D46C20F2EF6E94F2E48
:10124000FEE55F2EF8E06F2EF0E47F2EF02D0F2EDE
:10125000F4E78F2EF9E09F2EF3E1AF2EF8E3BF2ED7
:10126000F02D31C20F2EFCE74F2EF7E35F2EFAE987
:101270006F2EF0E47F2EF02D0F2EF3EE8F2EF2E383
:101280009F2EFFE4AF2EFAE2BF2EF02D1CC20F2ED0
:10129000FAEF4F2EFBEE5F2EF9EF6F2EF0E47F2E6C
:1012A000F02D0F2EFDEA8F2EFBED9F2EF2E2AF2EDA
:1012B000FBE1BF2EF02D07C20F2EFDE14F2EF4EE05
:1012C0005F2EF5E36F2EF0E47F2EF02D0F2EF6EE5D
:1012D0008F2EF3E49F2EFFEDAF2EF3E3BF2EF02D04
:1012E000F2C10F2EF8EA4F2EFDEC5F2EF7EE6F2EB7
:1012F000FFE37F2EF02D0F2EF9ED8F2EF8E39F2EBA
:10130000F5EEAF2EB92CF02DDEC10F2EFBE44F2EE3
:10131000FEE45F2E612CF0E47F2EF02D0F2EF2EC18
:101320008F2EFFE99F2EF3E1AF2EF8E3BF2EF02DB5
:10133000CAC10F2EFEE14F2EFAE75F2EF4E96F2EA1
:10134000FFE37F2EF02D0F2EF1E98F2EF6E89F2E72
:10135000FAE3AF2EFDE3BF2EF02DB5C10F2EF1EA5B
:101360004F2EF3EB5F2EFDE86F2EFFE37F2EF02D67
:101370000F2EF8E18F2EF9EC9F2EF2E9AF2EFDE350
:10138000BF2EF02DA0C10F2EF0EB4F2EF8EE5F2EEA
:10139000FCEC6F2EFFE37F2EF02D0F2EF1E58F2E4C
:1013A000F7E79F2EFAEDAF2EFAE3BF2EF02D8BC19B
:1013B0000F2EF5EF4F2EFEE35F2EFDE36F2EF0E4D0
:1013C0007F2EF02D0F2EF9EB8F2EFEEE9F2EF9EDD6
:1013D000AF2EF3E3BF2EF02D76C10F2EFDEF4F2E73
:1013E000F9EE5F2EFAEC6F2EF0E47F2EF02D0F2E2B
:1013F000F0E18F2EF6E39F2EFFE9AF2EF2E2BF2E33
:10140000F02D61C10F2EF9E04F2EFBE75F2EF7E0C4
:101410006F2EF0E47F2EF02D0F2EFFE18F2EF4EDD6
:101420009F2EFBEAAF2EF7E3BF2EF02D4CC10F2EFF
:10143000FDEB4F2EFCEC5F2EF5EF6F2EFFE37F2EC2
:10144000F02D0F2EFEE48F2EFAE79F2EFDE9AF2E32
:10145000F8E3BF2EF02D37C10F2EF8E04F2EF0E746
:101460005F2EFFE46F2EF0E47F2EF02D0F2EF2E9B9
:101470008F2EF8E69F2EF1EBAF2EF0E3BF2EF02D6E
:1014800022C10F2EFFE94F2EF8EB5F2EF3EA6F2EED
:10149000FFE37F2EF02D0F2EF9ED8F2EFDE69F2E10
:1014A000FCE8AF2EFCE3BF2EF02D0DC10F2EFEEB9E
:1014B0004F2EF2E75F2EF3EC6F2EFFE37F2EF02D21
:1014C0000F2EF2EA8F2EFEEE9F2EF8E1AF2EFBE3F9
:1014D000BF2EF02DF8C00F2EF3E54F2EF4EA5F2E4D
:1014E000F6ED6F2EFFE37F2EF02D0F2EF0E88F2EFE
:1014F000F5E19F2EF1E5AF2EFAE3BF2EF02DE3C00C
:101500000F2EF3EF4F2EF7E45F2EFAE86F2EF0E484
:101510007F2EF02D0F2EF4EE8F2EFEEE9F2EF8EC88
:10152000AF2EFCE2BF2EF02DCEC00F2EF9E24F2ED3
:10153000F4EB5F2EFFEB6F2EF0E47F2EF02D0F2EDD
:10154000812CFCEA9F2EFBE0AF2EF4E2BF2EF02DA3
:10155000BAC00F2EF2E94F2EFFE15F2EFBE06F2E97
:10156000F0E47F2EF02D0F2EFEEC8F2EFCE69F2E4A
:10157000FCEFAF2EF6E3BF2EF02DA5C00F2EF5EA3F
:101580004F2EFDE95F2EF5E06F2EF0E47F2EF02D5B
:101590000F2EF0E38F2EF1E19F2EFDE5AF2EF7E346
:1015A000BF2EF02D90C00F2EF9EC4F2EF1E95F2EDB
:1015B000F5E06F2EF0E47F2EF02D0F2EF4E68F2E47
:1015C000F9EA9F2EF1E6AF2EF7E3BF2EF02D7BC098
:1015D0000F2EF2E64F2EF1E85F2EFAEA6F2EFFE3B0
:1015E0007F2EF02D0F2EF6ED8F2EFEEE9F2EF7E3C1
:1015F000AF2EFCE3BF2EF02D66C00F2EFAEF4F2E5C
:10160000FFEA5F2EF4EA6F2EFFE37F2EF02D0F2E00
:10161000FAE68F2EF3E09F2EF9E8AF2EFCE3BF2E03
:10162000F02D51C00F2EFCEE4F2EF6E35F2EF7EC9F
:101630006F2EFFE37F2EF02D0F2EFFEC8F2EFAE49E
:101640009F2EF0E1AF2EFBE3BF2EF02D3CC00F2EFE
:10165000F0E44F2EFBEB5F2EF9EB6F2E742CF02D88
:101660000F2EF6E98F2EF9EC9F2EFCE6AF2EF5E259
:10167000BF2EF02D28C00F2EF1E44F2EFEE55F2E79
:10168000F9E86F2EF0E47F2EF02D0F2EF7E08F2E6D
:10169000FBE59F2EF0EDAF2EFCE2BF2EF02D13C028
:1016A0000F2EF4ED4F2EF8EF5F2E66246A94FFE3C1
:1016B0007F2EF02D0F2EF4EE8F2EF3E39F2EF8E306
:1016C000AF2EBA2CF02D20E030E040E85FEBC501F2
:1016D000B4010E94BE178823A1F120E030E040E869
:1016E0005FEBC301B2010E94BE17882379F120E0AD
:1016F00030E0A901C701B6010E94881918165CF5EF
:1017000020E030E44CE156E4C701B6010E94BE1768
:10171000882334F5A3019201C701B6010E94021A81
:101720009B01AC01C501B4010E94951929813A8140
:101730004B815C810E94C817562F472F382F292FC5
:1017400013C050E040E030E82FEB0EC050E040E026
:1017500030E82FEB09C050E040E030E82FEB04C048
:1017600050E040E030E82FEB652F742F832F922F4D
:101770000F900F900F900F90DF91CF911F910F91CD
:10178000FF90EF90DF90CF90BF90AF909F908F90A1
:101790007F906F905F904F9008954F925F926F92FD
:1017A0007F928F929F92AF92BF92CF92DF92EF92F1
:1017B000FF920F931F93CF93DF9300D000D0CDB74C
:1017C000DEB74B015C0129013A01E982FA820B8301
:1017D0001C8320E030E040E450E40E94021A2DEB2C
:1017E00037E346E856E30E9495196B017C0120E03F
:1017F00030E040E050E4C501B4010E94021A27E144
:1018000037EB41ED59E30E9495199B01AC01C701EB
:10181000B6010E9422176B017C012BE531EB4FEBE7
:101820005CE3C501B4010E9495199B01AC01C7019D
:10183000B6010E94231723ED3EED40E85EE30E94CF
:1018400022176B017C012AE830EB41EC5EE36981F1
:101850007A818B819C810E9495199B01AC01C70103
:10186000B6010E9495199B01AC01C301B2010E940F
:1018700022179B01AC01C301B2010E94C81722E5E7
:1018800038EB4EE75FE30E9495190F900F900F9091
:101890000F90DF91CF911F910F91FF90EF90DF900C
:1018A000CF90BF90AF909F908F907F906F905F9000
:1018B0004F90089521E73DE34CEE51E40E9422173A
:1018C00021E73DE34CEE51E40E94C81708958F9242
:1018D0009F92AF92BF92CF92DF92EF92FF924B0115
:1018E0005C01CA01B9012AEF3DEE4BE65BEB0E94B9
:1018F000951920E030E04CE652E40E9423176B017A
:101900007C019B01AC01C501B4010E9422174B016F
:101910005C012DEC3CEC45EE53E4C701B6010E949E
:1019200023179B01AC01C501B4010E94C817FF90A9
:10193000EF90DF90CF90BF90AF909F908F900895E1
:101940008F929F92AF92BF92CF92DF92EF92FF92CF
:101950006B017C0120E030E040E450E40E94021A78
:101960002DE73DE140E957EA0E9495194B015C01E2
:1019700020E030E040E050E4C701B6010E94021AC6
:101980002FEF36EE4BED5FE20E9495199B01AC0103
:10199000C501B4010E9423174B015C0122E838EA1B
:1019A0004BEF57E3C701B6010E9495199B01AC01AB
:1019B000C501B4010E94221720E030E040E85FE357
:1019C0000E9423179B01AC0160E070E080E89FE378
:1019D0000E94C817FF90EF90DF90CF90BF90AF901C
:1019E0009F908F9008954F925F926F927F928F9207
:1019F0009F92AF92BF92CF92DF92EF92FF920F939E
:101A00001F93CF93DF93CDB7DEB72C970FB6F89423
:101A1000DEBF0FBECDBF69877A878B879C87290180
:101A20003A01E982FA820B831C83CA01B9010E9440
:101A3000A00C6D837E838F839887A3019201C601DA
:101A4000B5010E94670C2B013C01EF8CF8A009A1A5
:101A50001AA129813A814B815C81C601B5010E949E
:101A6000CD0B6B017C0169817A818B819C810E9405
:101A70005A0C4B015C0120E030E040E85FE3C30119
:101A8000B2010E942317A50194010E9422179B0115
:101A9000AC016D817E818F8198850E9495199B0193
:101AA000AC01C701B6010E94951929853A854B857D
:101AB0005C850E9495192C960FB6F894DEBF0FBE78
:101AC000CDBFDF91CF911F910F91FF90EF90DF90ED
:101AD000CF90BF90AF909F908F907F906F905F90CE
:101AE0004F9008954F925F926F927F92AF92BF9204
:101AF000CF92DF92EF92FF920F931F93CF93DF93DA
:101B0000CDB7DEB728970FB6F894DEBF0FBECDBFB6
:101B100029833A834B835C832DEC3CEC4CE851E405
:101B20000E9495196D837E838F83988729813A81DE
:101B30004B815C81C801B7010E94C8179B01AC01B1
:101B4000C601B5010E9422179B01AC016D817E8107
:101B50008F8198850E94951928960FB6F894DEBF5C
:101B60000FBECDBFDF91CF911F910F91FF90EF90EE
:101B7000DF90CF90BF90AF907F906F905F904F902D
:101B80000895CF92DF92EF92FF926B017C01CA0120
:101B9000B9010E9454010E94C317A70196010E9437
:101BA0009519FF90EF90DF90CF900895CF92DF923C
:101BB000EF92FF926B017C01CA01B9010E945401AE
:101BC0000E94521AA70196010E949519FF90EF906A
:101BD000DF90CF9008952F923F924F925F926F9235
:101BE0007F928F929F92AF92BF92CF92DF92EF92AD
:101BF000FF920F931F93CF93DF93CDB7DEB7E69796
:101C00000FB6F894DEBF0FBECDBF98A38F8F49A348
:101C10005AA36BA37CA30FA718AB29AB3AAB8B8E4F
:101C20009C8EAD8EBE8ED701C601B0588BAB9CABDF
:101C3000ADABBEAB60E070E080E691E40E94540181
:101C400069A77AA78BA79CA71EA61DA61DA21EA2E8
:101C50001FA218A616C26DA17EA18FA198A50E94F1
:101C6000521A4B015C019B01AC016FA578A989A9AF
:101C70009AA90E949519562E472E8D839E836DA199
:101C80007EA18FA198A50E94C3176B017C019B01C7
:101C9000AC016FA578A989A99AA90E949519362E39
:101CA000272E782E692E28EA36EC40E052ECC5014A
:101CB000B4010E9495196B8B7C8B8D8B9E8B28EACF
:101CC00036EC40E052ECC701B6010E9495196F8BCB
:101CD000788F898F9A8F20E030E040E451E46BA93F
:101CE0007CA98DA99EA90E94C8176B877C878D87C8
:101CF0009E871F82188619861A8627C120E030E049
:101D000040E050E4632D722D872D962D0E94021A1B
:101D10006B017C0120E030E040E050E4652D742D43
:101D20008D819E810E94021A9B01AC01C701B60100
:101D30000E94231720E030E040E05FE30E94021A97
:101D40006B017C019B01AC0160E070E080E89FE3E7
:101D50000E94C81769837A838B839C8397018601CD
:101D600049A15AA16BA17CA18F8D98A10E949401D9
:101D70004B015C01B7FAB094B7F8B094A501940197
:101D8000652D742D8D819E810E949519A701960164
:101D90000E94C8179B01AC0169817A818B819C816B
:101DA0000E9495196F87788B898B9A8BA501940176
:101DB000632D722D872D962D0E949519A7019601EE
:101DC0000E94C8179B01AC0169817A818B819C813B
:101DD0000E9495199B01AC01632D722D872D962DC4
:101DE0000E9423176B017C012F85388949895A8904
:101DF000652D742D8D819E810E9423174B015C01FE
:101E000029813A814B815C816F89788D898D9A8D8A
:101E10000E9495199B01AC01C501B4010E942317D2
:101E2000162F072FB82EA92E29813A814B815C816C
:101E30006B897C898D899E890E9495199B01AC01D3
:101E4000C701B6010E942317F62EE72ED82EC92E01
:101E5000262F372F482F592F632D722D872D962D22
:101E60000E9423179B01AC0169817A818B819C813F
:101E70000E94951920E030E040E05FE30E94951950
:101E80009B01AC016F81788589859A850E94231713
:101E90006F83788789879A87212F302F4B2D5A2D72
:101EA000652D742D8D819E810E9423179B01AC01AD
:101EB00069817A818B819C810E94951920E030E0B4
:101EC00040E05FE30E9495199B01AC016B857C8526
:101ED0008D859E850E9423176B877C878D879E87C3
:101EE00020E030E0A901612F702F8B2D9A2D0E94E8
:101EF000BE17882374F42F962CAD3DAD4EAD5FAD6B
:101F00002F976B857C858D859E850E94BE178823C3
:101F10008CF120E030E040E450E46F2D7E2D8D2DDB
:101F20009C2D0E9495199B01AC01612F702F8B2D68
:101F30009A2D0E9488191816ECF0512E402EBD8261
:101F4000AE823F2C2E2C7D2C6C2C20E030E040E427
:101F500050E46B8D7C8D8D8D9E8D0E9495199B011B
:101F6000AC016F81788589859A850E94BE17181605
:101F70000CF0C4CE2F962CAD3DAD4EAD5FAD2F977E
:101F80006B857C858D859E850E9488191816D4F4F2
:101F900020E030E0A90169A57AA58BA59CA50E9447
:101FA000881918167CF469A57AA58BA59CA590586C
:101FB00020E030E040E05FE30E94951969A77AA72E
:101FC0008BA79CA72F962CAD3DAD4EAD5FAD2F9747
:101FD0006B857C858D859E850E94BE178823D4F4F1
:101FE00020E030E0A90169A57AA58BA59CA50E94F7
:101FF000BE1788237CF469A57AA58BA59CA590586B
:1020000020E030E040E05FE30E94951969A77AA7DD
:102010008BA79CA76AE077ED83E29CE30E946101B5
:102020009B01AC0169A57AA58BA59CA59F770E9411
:10203000BE17882324F4A1E0B0E0BEA7ADA760E0FE
:1020400070E084E392E40E9454019B01AC016DA115
:102050007EA18FA198A50E948819181624F481E00A
:1020600090E09EA78DA729A53AA54BA55CA56DA1DB
:102070007EA18FA198A50E9423176DA37EA38FA395
:1020800098A7ADA5BEA5AB2B09F4E5CD6DA17EA1AA
:102090008FA198A50E947401E6960FB6F894DEBF52
:1020A0000FBECDBFDF91CF911F910F91FF90EF90A9
:1020B000DF90CF90BF90AF909F908F907F906F9068
:1020C0005F904F903F902F9008952F923F924F92A4
:1020D0005F926F927F928F929F92AF92BF92CF92B8
:1020E000DF92EF92FF920F931F93CF93DF93CDB7C1
:1020F000DEB7E4970FB6F894DEBF0FBECDBF9CA34A
:102100008BA34DA35EA36FA378A70DA71EA72FA730
:1021100038AB65962CAD3DAD4EAD5FAD6597619624
:102120006CAD7DAD8EAD9FAD61970E94C10D6F8B83
:10213000788F898F9A8F65962CAD3DAD4EAD5FAD92
:10214000659761966CAD7DAD8EAD9FAD61970E9438
:10215000D60D69AB7AAB8BAB9CAB2D962CAD3DAD60
:102160004EAD5FAD2D97C501B4010E9423170E94AB
:1021700054014B015C010E94C31728EA36EC40E091
:1021800052EC0E9495196B8F7C8F8D8F9E8FC501AD
:10219000B4010E94521A28EA36EC40E052EC0E9448
:1021A00095196F8F78A389A39AA32D966CAD7DADF9
:1021B0008EAD9FAD2D970E9454014B015C010E9492
:1021C000C3179B01AC016DA57EA58FA598A90E94A0
:1021D00095196D837E838F839887C501B4010E9412
:1021E000521A9B01AC016DA57EA58FA598A90E94EE
:1021F000951969877A87282E392EC701B60190581C
:1022000020E030E040E451E40E94C8176F87788BEB
:10221000898B9A8B1B861C861D861E861B8A1C8AB0
:102220001D8A1E8A20E030E040E050E46D817E810E
:102230008F8198850E94021A6B017C0120E030E0BA
:1022400040E050E469857A85822D932D0E94021A20
:102250009B01AC01C701B6010E94231720E030E0CA
:1022600040E05FE30E94021AD62EE72EF82EC92E18
:1022700069A77AA78BA79CA7262F372F482F592FFE
:1022800060E070E080E09FE30E94C81769837A8372
:102290008B839C832D2D3E2D4F2D5C2D6F89788D4A
:1022A000898D9A8D0E9423178B019C014DA15EA1FF
:1022B0006FA178A58BA19CA10E9494014B015C01A8
:1022C0002D2D3E2D4F2D5C2D6D817E818F8198852A
:1022D0000E94C8179B01AC015058C501B4010E946F
:1022E00095192B013C012D2D3E2D4F2D5C2D69851F
:1022F0007A85822D932D0E94C8179B01AC015058FE
:10230000C501B4010E9495196B017C01A3019201E2
:1023100069817A818B819C810E9495199B01AC0116
:102320006D817E818F8198850E9423174B015C010E
:1023300029813A814B815C816F8D78A189A19AA115
:102340000E9495199B01AC01C501B4010E9423179D
:10235000A62EB72E082F192FA701960169817A8121
:102360008B819C810E9495199B01AC0169857A85BE
:10237000822D932D0E9423176B017C0129813A81C4
:102380004B815C816B8D7C8D8D8D9E8D0E9495190E
:102390009B01AC01C701B6010E9423172B013C0130
:1023A00020E030E040E450E46B857C858D859E859F
:1023B0000E94C8176B017C010E943A18CB0162E3AE
:1023C00070E00E94781B4C01892B09F086C0AD8219
:1023D000BE82202E312E6796EEADFFAD6797C0828C
:1023E000D182E282F38220E030E040E451E46F8564
:1023F000788989899A890E9495196796EEADFFAD13
:10240000679764837583868397832B853C854D8589
:102410005E856F85788989899A890E94C8170E948C
:102420008F170E948101DC01CB01B0586796EEAD99
:10243000FFAD679780879187A287B38729813A810B
:102440004B815C816B897C898D899E890E942317D1
:102450006796EEADFFAD6797648775878687978728
:102460005B016C01EB84FC840D851E852DA53EA5CA
:102470004FA558A969A97AA98BA99CA90E94720D98
:102480006796EEADFFAD6797608B718B828B938BF8
:102490000E948F170E9481016796EEADFFAD67978E
:1024A000648B758B868B978B89A59AA5ABA5BCA5EC
:1024B000808F918FA28FB38F8D819E81A22DB32D9E
:1024C000848F958FA68FB78F40A251A262A273A26C
:1024D00014A215A216A217A274C02A2D3B2D402FBC
:1024E000512F6D817E818F8198850E9423179B01DA
:1024F000AC0169817A818B819C810E94951920E0D1
:1025000030E040E05FE30E9495199B01AC016B85D0
:102510007C858D859E850E9423176B877C878D87A0
:102520009E87A301920169857A85822D932D0E9451
:1025300023179B01AC0169817A818B819C810E9468
:10254000951920E030E040E05FE30E9495199B017F
:10255000AC016F85788989899A890E9423176F87D2
:10256000788B898B9A8B20E030E040E450E46A2D30
:102570007B2D802F912F0E9495199B01AC015F77D5
:10258000C301B2019F770E9488191816BCF02981F7
:102590003A814B815C816B897C898D899E890E94FF
:1025A00023176B8B7C8B8D8B9E8BAD82BE820F83B2
:1025B000188749865A86262C372C34CE88248A944C
:1025C000982CC401E4960FB6F894DEBF0FBECDBFC1
:1025D000DF91CF911F910F91FF90EF90DF90CF90FF
:1025E000BF90AF909F908F907F906F905F904F9033
:1025F0003F902F900895CF92DF92EF92FF920F932A
:102600001F93CF93DF93EC018B01FC01EC5BF24F46
:10261000C080D180E280F380072E000C880B990BDC
:102620000E9472189B01AC01C701B6010E94881973
:10263000181674F488E2809FF001819FF00D112438
:102640003496EC0FFD1F608171818281938103C0FC
:1026500060E070E0CB01DF91CF911F910F91FF906F
:10266000EF90DF90CF900895CF92DF92EF92FF929C
:102670000F931F93CF93DF93EC018B01FC01EC5B75
:10268000F24FC080D180E280F380072E000C880BCF
:10269000990B0E9472189B01AC01C701B6010E9400
:1026A0008819181674F488E2809FF001819FF00D5C
:1026B00011243896EC0FFD1F608171818281938116
:1026C00003C060E070E0CB01DF91CF911F910F91CB
:1026D000FF90EF90DF90CF900895CF92DF92EF922E
:1026E000FF920F931F93CF93DF93EC018B01FC01BB
:1026F000EC5BF24FC080D180E280F380072E000CAB
:10270000880B990B0E9472189B01AC01C701B6019E
:102710000E948819181674F488E2809FF001819F46
:10272000F00D11247096EC0FFD1F60817181828184
:10273000938103C060E070E0CB01DF91CF911F91E6
:102740000F91FF90EF90DF90CF900895CF92DF929E
:10275000EF92FF920F931F93CF93DF93EC018B01C6
:10276000FC01EC5BF24FC080D180E280F380072E49
:10277000000C880B990B0E9472189B01AC01C701D9
:10278000B6010E948819181674F488E2809FF0013F
:10279000819FF00D11247496EC0FFD1F60817181F3
:1027A0008281938103C060E070E0CB01DF91CF9123
:1027B0001F910F91FF90EF90DF90CF90089584B11B
:1027C0008F6084B987B1887F87B918B815B8089524
:1027D00040E050E03CC081E090E0042E02C0880F51
:1027E000991F0A94E2F785B98FE19EE40197F1F70A
:1027F00000C0000020E030E025C086B190E0022E4D
:1028000002C0959587950A94E2F780FF19C0FA01F6
:10281000EE0FFF1FEE0FFF1FE050FF4FE20FF31F01
:102820008081823469F486B190E0022E02C09595D1
:1028300087950A94E2F780FDF6CF81E090E0089555
:102840002F5F3F4F24303105C4F24F5F5F4F44305C
:1028500051050CF280E090E008952F923F924F9244
:102860005F926F927F928F929F92AF92BF92CF9220
:10287000DF92EF92FF920F931F93CF93DF93CDB729
:10288000DEB7C956D1090FB6F894DEBF0FBECDBF73
:10289000182F8D3209F074C0E091DC01EE2309F4A9
:1028A0005CC2E150E093DC01F0E0E352FE4F1081A6
:1028B000108281E00E94BA008DED91E00E9420011B
:1028C0001E3219F41092D70148C26091D7016623D5
:1028D000C1F18FEF860F8093D701612F70E08B01DC
:1028E00000531109682F70E080E090E00E9470189A
:1028F0009B01AC0160E070E080E291E40E94021A6A
:102900006B017C01B801110F880B990B0E947218A2
:10291000A70196010E94C8179B01AC016091D801E4
:102920007091D9018091DA019091DB010E94221708
:102930006093D8017093D9018093DA019093DB0101
:102940000CC220E030E040E251E46091D801709187
:10295000D9018091DA019091DB010E94C8170E9491
:102960003A18072E000C880B990B0E94721860937E
:10297000D8017093D9018093DA019093DB01EDC106
:102980008E32A9F48091D7018111E7C181E0809353
:10299000D7018091DC01E82FF0E0E352FE4F108375
:1029A0008F5F8093DC01812F0E94ED00D6C180ED06
:1029B000810F8A3008F05CC0612F70E060537109AC
:1029C000072E000C880B990B0E9472186B017C017A
:1029D000B090D701B1100DC013C020E030E040E24C
:1029E00051E4C701B6010E94C8176B017C010F5F5B
:1029F00001C000E00B1588F3B394B092D70116C064
:102A000020E030E040E251E46091D8017091D901BA
:102A10008091DA019091DB010E9495196093D801B1
:102A20007093D9018093DA019093DB01A70196019D
:102A30006091D8017091D9018091DA019091DB0108
:102A40000E9423176093D8017093D9018093DA0113
:102A50009093DB018091DC01E82FF0E0E352FE4F20
:102A600010838F5F8093DC01812F0E94ED0075C180
:102A7000133709F072C18091A601E82FF0E0EE0F44
:102A8000FF1FEE0FFF1FE955FE4F4091D8015091F7
:102A9000D9016091DA017091DB0140835183628337
:102AA00073831092D8011092D9011092DA0110921A
:102AB000DB011092D7018F5F8093A60181E00E9415
:102AC000BA00E091A601EC3070F4F0E0EE0FFF1FC9
:102AD000E05FFE4F808191810E9420018AE691E0B3
:102AE0000E9420013AC1EC3008F437C10F2EF7EAFA
:102AF0002F2EF1E03F2EF02DF10184A595A566A5BE
:102B000077A5A0A4B1A4C2A4D3A4E4A0F5A006A173
:102B100017A120A131A142A153A140805180628020
:102B200073807F936F939F938F93C301B2010E9431
:102B3000F30C0F900F900F900F90A8966CAF7DAF95
:102B40008EAF9FAFA897F101848D958D268D378D1F
:102B5000808C918CA28CB38C408551856285738565
:102B6000A0964CAF5DAF6EAF7FAFA097448155810B
:102B700066817781A4964CAF5DAF6EAF7FAFA497AF
:102B80003F932F939F938F93A096CCACDDACEEAC8C
:102B9000FFACA097A4960CAD1DAD2EAD3FADA49794
:102BA000B301A20181E090E00E94EB0D0F900F9025
:102BB0000F900F90F101A489B589168907892089A2
:102BC00031894289538984849584A684B784FE011F
:102BD0003196FF93EF930F931F93BF93AF935F9340
:102BE0004F933F932F939F938F937F936F93A096D1
:102BF000CCACDDACEEACFFACA097A4960CAD1DAD9B
:102C00002EAD3FADA497A8964CAD5DAD6EAD7FAD3A
:102C1000A89781E090E00E946510AA969FAF8EAFC2
:102C2000AA970FB6F894DEBF0FBECDBFF12C8BC0B4
:102C3000B801CE0101960E94FB12562E472E382E67
:102C4000292EB801CE0101960E943413D62EC72E2C
:102C5000B82EA92EB801CE0101960E946D13962EB2
:102C6000872E782E692EB801CE0101960E94A613F8
:102C70006D966FAF6D97A1967FAFA197A5968FAF19
:102C8000A597E92E2F923F924F925F921F92FF924B
:102C900088E291E09F938F938E01055B1F4F1F93F6
:102CA0000F930E94A01B6F927F928F929F92AF9280
:102CB000BF92CF92DF928DE391E09F938F93CE01ED
:102CC000CA969F938F930E94A01BEF92A5965FAD2B
:102CD000A5975F93A1966FADA1976F936D967FAD0A
:102CE0006D977F9382E591E09F938F93CE018996B4
:102CF0009F938F930E94A01B81E00E94BA00C8019D
:102D00000E9420010FB6F894DEBF0FBECDBF0E9417
:102D1000E813892BE1F381E00E94BA00CE01CA9644
:102D20000E9420010E94E813892BE1F381E00E94B8
:102D3000BA00CE0189960E9420010E94E813892BD7
:102D4000E1F392E3F90E0F2D10E0AA96EEADFFAD80
:102D5000AA97E017F1070CF06BCFC759DF4F0FB6FA
:102D6000F894DEBF0FBECDBFDF91CF911F910F91C1
:102D7000FF90EF90DF90CF90BF90AF909F908F909B
:102D80007F906F905F904F903F902F9008950F939A
:102D90001F93CF93DF9300E010E038C081E090E014
:102DA000002E02C0880F991F0A94E2F785B98FE1BF
:102DB0009EE40197F1F700C00000C0E0D0E020C021
:102DC00086B190E00C2E02C0959587950A94E2F7A3
:102DD00080FF15C0F801EE0FFF1FEE0FFF1FE05040
:102DE000FF4FEC0FFD1F80810E942D148FEF91EE9D
:102DF00024E0815090402040E1F700C0000021967F
:102E0000C430D105ECF215B80F5F1F4F0430110527
:102E10002CF2DF91CF911F910F9108950E943601FE
:102E20000E94DF1384E691E00E9420010E94C716F1
:102E30002FEF83EC99E0215080409040E1F700C0F3
:102E40000000F4CF5058BB27AA270E943A170C94D1
:102E50003A190E94011938F00E94081920F039F43B
:102E60009F3F19F426F40C94D7180EF4E095E7FB75
:102E70000C94D118E92F0E945F1958F3BA17620712
:102E800073078407950720F079F4A6F50C9481194F
:102E90000EF4E0950B2EBA2FA02D0B01B901900175
:102EA0000C01CA01A0011124FF27591B99F0593FB9
:102EB00050F4503E68F11A16F040A22F232F342F01
:102EC0004427585FF3CF469537952795A795F0404F
:102ED0005395C9F77EF41F16BA0B620B730B840B64
:102EE000BAF09150A1F0FF0FBB1F661F771F881F1C
:102EF000C2F70EC0BA0F621F731F841F48F4879574
:102F000077956795B795F7959E3F08F0B0CF939565
:102F1000880F08F09927EE0F979587950895DF930E
:102F2000DD27B92FBF7740E85FE31616170648077D
:102F30005B0718F4D92F0E948D199F938F937F936D
:102F40006F930E945A1AE8E6F0E00E94DA180E9495
:102F50003A192F913F914F915F910E94A819DD235B
:102F600051F09058A2EA2AED3FE049EC5FE3D078B7
:102F70005D270E943A17DF910C943A190E94AD1810
:102F800008F481E008950E941119E3950C944B19FF
:102F90000E94DC170C943A190E94081958F00E94FC
:102FA000011940F029F45F3F29F00C94D118511118
:102FB0000C9482190C94D7180E945F1968F3992316
:102FC000B1F3552391F3951B550BBB27AA27621725
:102FD0007307840738F09F5F5F4F220F331F441F32
:102FE000AA1FA9F335D00E2E3AF0E0E832D0915066
:102FF0005040E695001CCAF72BD0FE2F29D0660F53
:10300000771F881FBB1F261737074807AB07B0E895
:1030100009F0BB0B802DBF01FF2793585F4F3AF09B
:103020009E3F510578F00C94D1180C9482195F3FA3
:10303000E4F3983ED4F3869577956795B795F79521
:103040009F5FC9F7880F911D9695879597F9089509
:10305000E1E0660F771F881FBB1F621773078407A5
:10306000BA0720F0621B730B840BBA0BEE1F88F7B4
:10307000E09508950E9441186894B1110C9482194A
:1030800008950E94671988F09F5798F0B92F9927E3
:10309000B751B0F0E1F0660F771F881F991F1AF043
:1030A000BA95C9F714C0B13091F00E948119B1E00E
:1030B00008950C948119672F782F8827B85F39F00D
:1030C000B93FCCF3869577956795B395D9F73EF4DC
:1030D00090958095709561957F4F8F4F9F4F089584
:1030E000E89409C097FB3EF49095809570956195A2
:1030F0007F4F8F4F9F4F9923A9F0F92F96E9BB2758
:103100009395F695879577956795B795F111F8CFD3
:10311000FAF4BB0F11F460FF1BC06F5F7F4F8F4F3E
:103120009F4F16C0882311F096E911C0772321F034
:103130009EE8872F762F05C0662371F096E8862FCC
:1031400070E060E02AF09A95660F771F881FDAF723
:10315000880F9695879597F90895990F0008550F50
:10316000AA0BE0E8FEEF16161706E807F907C0F00D
:1031700012161306E407F50798F0621B730B840B15
:10318000950B39F40A2661F0232B242B252B21F4EF
:1031900008950A2609F4A140A6958FEF811D811D8F
:1031A000089597F99F6780E870E060E008959FEFC9
:1031B00080EC0895DF93CF931F930F93FF92EF92CC
:1031C000DF927B018C01689406C0DA2EEF010E9429
:1031D000A819FE01E894A591259135914591559145
:1031E000A6F3EF010E943A17FE019701A801DA94B5
:1031F00069F7DF90EF90FF900F911F91CF91DF91D2
:10320000089500240A94161617061806090608954C
:1032100000240A94121613061406050608950C9449
:10322000D7180E946719D8F3E894E0E0BB279F57AE
:10323000F0F02AED3FE049EC06C0EE0FBB0F661F31
:10324000771F881F28F0B23A62077307840728F0B7
:10325000B25A620B730B840BE3959A9572F7803820
:1032600030F49A95BB0F661F771F881FD2F79048DE
:103270000C949A1A092E0394000C11F4882352F02E
:10328000BB0F40F4BF2B11F460FF04C06F5F7F4F92
:103290008F4F9F4F0895EF93E0FF07C0A2EA2AEDFA
:1032A0003FE049EC5FEB0E943A170E943A190F90F9
:1032B000039401FC9058E5E9F0E00C94A61A57FD40
:1032C0009058440F551F59F05F3F71F04795880F94
:1032D00097FB991F61F09F3F79F08795089512162B
:1032E00013061406551FF2CF4695F1DF08C01616D7
:1032F00017061806991FF1CF869571056105089488
:103300000895E894BB2766277727CB0197F908959E
:103310000E94AD1808F48FEF08959B01AC0160E0A6
:1033200070E080E89FE30C94C8170E94A8190C94E1
:103330003A190E94011938F00E94081920F09523CB
:1033400011F00C94D1180C94D71811240C948219F4
:103350000E945F1970F3959FC1F3950F50E0551FC0
:10336000629FF001729FBB27F00DB11D639FAA27DA
:10337000F00DB11DAA1F649F6627B00DA11D661F29
:10338000829F2227B00DA11D621F739FB00DA11D4A
:10339000621F839FA00D611D221F749F3327A00D04
:1033A000611D231F849F600D211D822F762F6A2FA0
:1033B00011249F5750409AF0F1F088234AF0EE0F05
:1033C000FF1FBB1F661F771F881F91505040A9F732
:1033D0009E3F510580F00C94D1180C9482195F3FE8
:1033E000E4F3983ED4F3869577956795B795F7956E
:1033F000E7959F5FC1F7FE2B880F911D96958795E6
:1034000097F90895FA01EE0FFF1F30962105310557
:10341000A1F16115710561F48038BFE39B0749F1A3
:1034200068949038810561F08038BFEF9B0741F0C8
:1034300099234AF5FF3FE1053105210519F1E8948B
:103440000894E795D901AA2329F4AB2FBE2FF85F82
:10345000D0F310C0FF5F70F4A695E0F7F73950F095
:1034600019F0FF3A38F49F779F930DD00F9007FC27
:103470009058089546F00C94D71860E070E080E80A
:103480009FE308954FE79F775F934F933F932F9369
:103490000E94FC1A2F913F914F915F910E949519C4
:1034A0000C94661A9F930E9411190F9007FCEE5F0F
:1034B0000C944B199B01AC010C94951929F416F04E
:1034C0000C94D1180C9481190C94D7180E94671988
:1034D000A8F39638A0F707F80F92E8942BE33AEA9E
:1034E00048EB5FE70E94AB190F920F920F924DB716
:1034F0005EB70F920E94441BE3EBF0E00E94DA18E3
:103500004F915F91EF91FF91E595EE1FFF1F49F0FD
:10351000FE57E0684427EE0F441FFA95E1F7419506
:10352000550B0E94BE1A0F9007FE0C948D1908953A
:103530009F3F31F0915020F4879577956795B79527
:10354000880F911D9695879597F908959F938F936E
:103550007F936F93FF93EF939B01AC010E949519AA
:10356000EF91FF910E94DA182F913F914F915F9157
:103570000C9495190C94D1180C94981A0E94671900
:10358000D8F39923C9F3940F511DA3F391505040E0
:1035900094F059F0882332F0660F771F881F9150FE
:1035A0005040C1F79E3F51052CF7880F911D96950D
:1035B000879597F908955F3FACF0983E9CF0BB2744
:1035C000869577956795B79508F4B1609395C1F79F
:1035D000BB0F58F711F460FFE8CF6F5F7F4F8F4F3D
:1035E0009F4FE3CF0C94821916F00C94981A0C9408
:1035F000D71868940C94D1180E946719A8F39923DE
:10360000C1F3AEF3DF93CF931F930F93FF92C92FB4
:10361000DD2788232AF02197660F771F881FDAF7A6
:1036200020E030E040E85FEB9FE3883920F0803E07
:1036300038F021968F770E942317EBEDF0E004C05D
:103640000E942317E8E0F1E00E94DA188B01BE0126
:10365000EC01FB2E6F5771097595771F880B990B3D
:103660000E94721828E132E741E35FE30E94A81943
:10367000AF2D9801AE01FF900F911F91CF91DF9177
:103680000E943A170C943A19FA01DC01AA0FBB1FE9
:103690009B01AC01BF5728F42227332744275078D9
:1036A00020C0B75190F4AB2F00244695379527954D
:1036B000011CA395D2F3002071F0220F331F441F89
:1036C000B395DAF30ED00C94221761307105A0E89F
:1036D0008A07B94630F49B01AC0166277727882713
:1036E0009078309621F0208331834283538308956C
:1036F00097FB072E16F4009407D077FD09D00E949F
:103700008C1B07FC05D03EF4909581959F4F089542
:10371000709561957F4F0895AA1BBB1B51E107C0AF
:10372000AA1FBB1FA617B70710F0A61BB70B881F51
:10373000991F5A95A9F780959095BC01CD010895E0
:10374000AEE0B0E0E6EAFBE10C94611E0D891E8953
:1037500086E08C831A8309838FEF9FE79E838D8396
:10376000AE01475E5F4F6F89788DCE0101960E9452
:10377000C21BEF81F885E00FF11F10822E96E4E066
:103780000C947D1EABE0B0E0E8ECFBE10C94531E22
:103790006C017B018A01FC0117821682838181FF03
:1037A000CCC1CE0101963C01F6019381F70193FD56
:1037B000859193FF81917F01882309F4BAC18532F5
:1037C00039F493FD859193FF81917F01853229F42E
:1037D000B60190E00E94B91DE7CF912C212C312C2D
:1037E000FFE1F315D8F08B3279F038F4803279F0BC
:1037F0008332A1F4232D20611DC08D3261F080330E
:1038000069F4232D216016C0832D8260382EE32DAC
:10381000E4603E2E2AC0F32DF8601DC037FC2DC099
:1038200020ED280F2A3040F08E32B9F436FC81C1E9
:10383000232D2064322E19C036FE06C08AE0989EE1
:10384000200D1124922E11C0EAE02E9E200D11248D
:10385000222EF32DF0623F2E08C08C3621F4832DEA
:103860008068382E02C0883641F4F70193FD8591B7
:1038700093FF81917F018111B3CF982F9F7D955444
:10388000933028F40C5F1F4F9FE399830DC083365C
:1038900031F0833771F0833509F059C021C0F80148
:1038A000808189830E5F1F4F88248394912C53015C
:1038B00013C02801F2E04F0E511CF801A080B18026
:1038C00036FE03C0692D70E002C06FEF7FEFC501C7
:1038D0000E94AE1D4C018201F32DFF773F2E16C0D2
:1038E000280122E0420E511CF801A080B18036FE72
:1038F00003C0692D70E002C06FEF7FEFC5010E9429
:10390000A31D4C01F32DF0683F2E820133FC1BC038
:10391000822D90E088169906B0F4B60180E290E01E
:103920000E94B91D2A94F4CFF50137FC859137FE2A
:1039300081915F01B60190E00E94B91D21102A9487
:1039400021E0821A91088114910471F7E8C084364D
:1039500011F0893641F5F80137FE07C060817181A9
:10396000828193810C5F1F4F08C060817181072E97
:10397000000C880B990B0E5F1F4FF32DFF763F2E27
:1039800097FF09C090958095709561957F4F8F4FF7
:103990009F4FF0683F2E2AE030E0A3010E94F51D02
:1039A000882E861845C0853731F4232D2F7EB22E00
:1039B0002AE030E025C0932D997FB92E8F36C1F0D3
:1039C00018F4883579F0B5C0803719F0883721F0C0
:1039D000B0C0E92FE061BE2EB4FE0DC0FB2DF46037
:1039E000BF2E09C034FE0AC0292F2660B22E06C0A1
:1039F00028E030E005C020E130E002C020E132E004
:103A0000F801B7FE07C060817181828193810C5FEC
:103A10001F4F06C06081718180E090E00E5F1F4FF4
:103A2000A3010E94F51D882E8618FB2DFF773F2EDF
:103A300036FE0DC0232D2E7FA22E891458F434FE9D
:103A40000BC032FC09C0832D8E7EA82E05C0B82C79
:103A5000A32C03C0B82C01C0B92CA4FE0FC0FE01DA
:103A6000E80DF11D8081803321F49A2D997EA92ED5
:103A700009C0A2FE06C0B394B39404C08A2D867810
:103A800009F0B394A3FC11C0A0FE06C0B21488F4E0
:103A9000280C922C9B180EC0B21460F4B60180E280
:103AA00090E00E94B91DB394F7CFB21418F42B180C
:103AB00002C0982C212CA4FE10C0B60180E390E037
:103AC0000E94B91DA2FE17C0A1FC03C088E790E0C8
:103AD00002C088E590E0B6010CC08A2D867859F0C6
:103AE000A1FE02C08BE201C080E2A7FC8DE2B6011C
:103AF00090E00E94B91D891438F4B60180E390E08B
:103B00000E94B91D9A94F7CF8A94F301E80DF11D34
:103B10008081B60190E00E94B91D8110F5CF22206E
:103B200009F442CEB60180E290E00E94B91D2A94C9
:103B3000F6CFF6018681978102C08FEF9FEF2B961B
:103B4000E2E10C946F1EFC01059061507040011081
:103B5000D8F7809590958E0F9F1F0895FC016150B6
:103B6000704001900110D8F7809590958E0F9F1F9F
:103B700008950F931F93CF93DF93FB01238121FDC2
:103B800003C08FEF9FEF2CC022FF16C046815781E4
:103B9000248135814217530744F4A081B1819D01EE
:103BA0002F5F3F4F318320838C93268137812F5F96
:103BB0003F4F3783268314C08B01EC01FB01008447
:103BC000F185E02D0995892BE1F6D80116968D91A6
:103BD0009C911797019617969C938E931697CE01FA
:103BE000DF91CF911F910F910895FA01AA272830F4
:103BF00051F1203181F1E8946F936E7F6E5F7F4FBA
:103C00008F4F9F4FAF4FB1E03ED0B4E03CD0670F35
:103C1000781F891F9A1FA11D680F791F8A1F911D88
:103C2000A11D6A0F711D811D911DA11D20D009F4D8
:103C300068943F912AE0269F11243019305D31931A
:103C4000DEF6CF010895462F4770405D4193B3E003
:103C50000FD0C9F7F6CF462F4F70405D4A3318F0AA
:103C6000495D31FD4052419302D0A9F7EACFB4E05B
:103C7000A6959795879577956795BA95C9F7009713
:103C80006105710508959B01AC010A2E06945795B4
:103C9000479537952795BA95C9F7620F731F841F0B
:103CA000951FA01D08952F923F924F925F926F92A1
:103CB0007F928F929F92AF92BF92CF92DF92EF92BC
:103CC000FF920F931F93CF93DF93CDB7DEB7CA1B3D
:103CD000DB0B0FB6F894DEBF0FBECDBF09942A8868
:103CE000398848885F846E847D848C849B84AA8410
:103CF000B984C884DF80EE80FD800C811B81AA819D
:103D0000B981CE0FD11D0FB6F894DEBF0FBECDBF67
:083D1000ED010895F894FFCFC6
:103D18003132334134353642373839432D302E73FA
:103D28006C01730176017B01800185018A018F0195
:103D3800930197019C019E0152616E67653A2025A7
:103D48006420506174683A20252E3266004D4F4138
:103D58003A20252E32662057696E643A20252E3285
:103D6800660057696E64616765204D4F413A2025AA
:103D78002E32660044436F6566663A0044436F65B9
:103D8800666600497600534867740053416E6700C1
:103D9800575370640057416E67005A526E67007936
:103DA800496E00416C7400426D74720054005248B0
:063DB800756D6964000056
:00000001FF
