S01A000042616C697374696343616C63756C61746F722E73726563D5
S11300000C949B000C94B8000C94B8000C94B800A9
S11300100C94B8000C94B8000C94B8000C94B8007C
S11300200C94B8000C94B8000C94B8000C94B8006C
S11300300C94B8000C94B8000C94B8000C94B8005C
S11300400C94B8000C94B8000C94B8000C94B8004C
S11300500C94B8000C94B8000C94B8000C94B8003C
S11300600C94B8000C94B800084AD73B3BCE016E00
S113007084BCBFFDC12F3D6C74319ABD56833DDAFB
S11300803D00C77F11BED9E4BB4C3E916BAAAABE0A
S1130090000000803F05A84CCDB2D44EB93836A933
S11300A0020C50B9918688083CA6AAAA2ABE000070
S11300B000803F07634236B79BD8A71A39685618A1
S11300C0AEBAAB558C1D3CB7CC5763BD6DEDFD7519
S11300D03EF6177231BF000000803F08000000BEEA
S11300E0922449123EABAAAA2ABECDCCCC4C3E00E7
S11300F0000080BEABAAAAAA3E00000000BF000018
S113010000803F0000000000084178D3BB4387D142
S1130110133D190E3CC3BD4282AD2B3E68EC827682
S1130120BED98FE1A93E4C80EFFFBE01C4FF7F3FE3
S113013000000000000011241FBECFEFD4E0DEBF9A
S1130140CDBF11E0A0E0B1E0E8EBF4E302C005901C
S11301500D92A63AB107D9F721E0A6EAB1E001C0B1
S11301601D92AD3FB207E1F70E949F120C945A1AF8
S11301700C9400009BB19F70282F207F922B9BB979
S11301809BB19E7F9BB99BB192609BB932E03A953B
S1130190F1F700C09BB19D7F9BB9EFE8F1E0319787
S11301A0F1F700C000002BB1F0E18F9FC0011124D2
S11301B0922F9F70892B8BB98BB182608BB932E0FF
S11301C03A95F1F700C08BB18D7F8BB98FE99FE031
S11301D00197F1F700C0000008959BB19F70282F8C
S11301E0207F922B9BB99BB191609BB99BB192608C
S11301F09BB932E03A95F1F700C09BB19D7F9BB962
S1130200EFE8F1E03197F1F700C000002BB1F0E125
S11302108F9FC0011124922F9F70892B8BB98BB1B2
S113022082608BB932E03A95F1F700C08BB18D7FD3
S11302308BB98FE99FE00197F1F700C000000895A2
S11302400F931F93CF93DF938C01C0E0D0E003C0E2
S11302500E94ED002196F801EC0FFD1F80818111B1
S1130260F7CFDF91CF911F910F9108958FEF8AB946
S11302708FE39CE90197F1F700C0000082E00E943F
S1130280BA0088E20E94BA008CE00E94BA0086E0BC
S11302900E94BA0081E00E94BA008FE99FE00197B2
S11302A0F1F700C0000008952BED3FE049E450E46D
S11302B00E94261520E030E044E353E40E945913E1
S11302C0089520E030E040E752E40E9459132BEDFA
S11302D03FE049E450E40E94261520E030E044E386
S11302E053E40E945913089520E030E044E353E4BA
S11302F00E9426152BED3FE049E450E40E94591377
S1130300089520E030E040E752E40E94261520E002
S113031030E044E353E40E9426152BED3FE049E42A
S113032050E40E94591308954F925F926F927F9206
S11303308F929F92AF92BF92CF92DF92EF92FF92F1
S11303400F931F93CF93DF9300D000D0CDB7DEB7C8
S113035049835A836B837C8368017901019709F08F
S1130360CDC120E030E344E855E4C701B6010E9462
S1130370191518160CF4CDC120E030E046E655E41A
S1130380C701B6010E94191518160CF4D7C120E054
S113039030EA47E555E4C701B6010E94191518165D
S11303A00CF4E0C120E030EF4DE455E4C701B601A0
S11303B00E94191518160CF4E8C120E030EA43E451
S11303C055E4C701B6010E94191518160CF4F2C1C0
S11303D020E030E049E355E4C701B6010E94191555
S11303E018160CF4FBC120E030EE40E355E4C701DD
S11303F0B6010E94191518160CF405C220E030E865
S113040047E255E4C701B6010E94191518160CF409
S11304100EC220E030EC49E155E4C701B6010E9468
S1130420191518160CF416C220E030E14BE055E41F
S1130430C701B6010E94191518160CF420C220E059
S113044030EE4BEF54E4C701B6010E94191518169B
S11304500CF429C220E030E44CEE54E4C701B601A8
S11304600E94191518160CF432C220E030E442EE52
S113047054E4C701B6010E94191518160CF43AC2C7
S113048020E030E448ED54E4C701B6010E94191598
S113049018160CF443C220E030E647EC54E4C701DC
S11304A0B6010E94191518160CF44BC220E030E076
S11304B04EEB54E4C701B6010E94191518160CF44A
S11304C055C220E030E841EB54E4C701B6010E9474
S11304D0191518160CF45FC220E030E04AEA54E41F
S11304E0C701B6010E94191518160CF465C220E064
S11304F030E644EA54E4C701B6010E9419151816FF
S11305000CF46DC220E030E040EA54E4C701B601C7
S11305100E94191518160CF475C220E030E848E959
S113052054E4C701B6010E94191518160CF47DC2D3
S113053020E030E244E954E4C701B6010E941915F1
S113054018160CF485C220E030EC4FE854E4C701DF
S1130550B6010E94191518160CF48DC220E030E87B
S113056049E854E4C701B6010E94191518160CF4A1
S113057095C220E030E844E854E4C701B6010E9483
S1130580191518160CF49DC220E030E240E854E43A
S1130590C701B6010E94191518160CF4A5C220E073
S11305A030E045E754E4C701B6010E941915181656
S11305B00CF4ADC220E030E44CE654E4C701B601CB
S11305C00E94191518160CF4B5C220E030E442E676
S11305D054E4C701B6010E94191518160CF4BDC2E3
S11305E020E030E047E554E4C701B6010E94191544
S11305F018160CF4C5C220E030E84AE454E4C701FC
S1130600B6010E94191518160CF4CDC220E030E092
S113061043E454E4C701B6010E94191518160CF4FA
S1130620D5C220E030E84BE354E4C701B6010E9490
S1130630191518160CF4DDC220E030E04FE254E442
S1130640C701B6010E94191518160CF4E5C220E082
S113065030E040E254E4C701B6010E9419151816AF
S11306600CF4EDC220E030E046E154E4C701B601E9
S11306700E94191518160CF4F3C220E030E849E082
S113068054E4C701B6010E94191518160CF4FDC2F2
S113069020E030E04AE753E4C701B6010E9419158F
S11306A018160CF405C320E030E048EC52E4C7010E
S11306B0B6010E94191518160CF40DC320E030E0A1
S11306C042E852E4C701B6010E94191518160CF449
S11306D016C320E030E0A901C701B6010E94191534
S11306E018160CF421C30F2E412C512CF0E86F2E58
S11306F0FFEB7F2EF02D5301420125C30F2E412C19
S1130700512CF0E86F2EFFEB7F2EF02D53014201A8
S11307101AC30F2EF8E94F2EFEE65F2EFAEF6F2E66
S1130720FFE37F2EF02D0F2EF4EC8F2EFAEE9F2E8A
S1130730FAE1AF2EF9E3BF2EF02D05C30F2EF6E636
S11307404F2E542CF6EF6F2EFFE37F2EF02D0F2E3D
S1130750F7EB8F2EFCE59F2EF9E4AF2EF9E3BF2EC5
S1130760F02DF1C20F2E412C512CF0EF6F2EFFE330
S11307707F2EF02D0F2EF1EB8F2EF4EC9F2EF7E948
S1130780AF2EF9E3BF2EF02DDEC20F2EFAE94F2E65
S1130790F9E95F2EF9EE6F2EFFE37F2EF02D0F2E79
S11307A0F0E78F2EFFE09F2EF4EEAF2EF9E3BF2E7D
S11307B0F02DC9C20F2EF3E34F2E542CF3EE6F2EFF
S11307C0FFE37F2EF02D0F2EFFEC8F2EFDEE9F2EDC
S11307D0FAE2AF2EFAE3BF2EF02DB5C20F2EFDECD8
S11307E04F2EFCEC5F2EFCED6F2EFFE37F2EF02DE1
S11307F00F2EF7E38F2EFAE89F2EFFE7AF2EFAE3D2
S1130800BF2EF02DA0C20F2EF6E64F2E542CF6ED7F
S11308106F2EFFE37F2EF02D0F2EFDEC8F2EFAE8C6
S11308209F2EFEEBAF2EFAE3BF2EF02D8CC20F2EBF
S1130830412C512CF0ED6F2EFFE37F2EF02D0F2E67
S1130840FAE38F2EFFEB9F2EFDE0AF2EFBE3BF2ECE
S1130850F02D79C20F2EFAE94F2EF9E95F2EF9EC4B
S11308606F2EFFE37F2EF02D0F2EFAE78F2EF7E584
S11308709F2EF2E5AF2EFBE3BF2EF02D64C20F2EA8
S1130880F6E64F2E542CF6EC6F2EFFE37F2EF02D60
S11308900F2EFEE68F2EF0EE9F2EFFE7AF2EFBE32A
S11308A0BF2EF02D50C20F2EFAE94F2EF9E95F2E1C
S11308B0F9EC6F2EFFE37F2EF02D0F2E812CF8E341
S11308C09F2EF3E5AF2EFBE3BF2EF02D3CC20F2E7F
S11308D0412C512CF0ED6F2EFFE37F2EF02D0F2EC7
S11308E0FCEB8F2EF5E69F2EF0E1AF2EFBE3BF2E3F
S11308F0F02D29C20F2EF6E64F2E542CF6ED6F2E56
S1130900FFE37F2EF02D0F2EF8EC8F2EFCE09F2EB0
S1130910F6ECAF2EFAE3BF2EF02D15C20F2E412CAC
S1130920512CF0EE6F2EFFE37F2EF02D0F2EF3E708
S11309308F2EF4EB9F2EF1E6AF2EFAE3BF2EF02DAF
S113094002C20F2EFDEC4F2EFCEC5F2EFCEE6F2E40
S1130950FFE37F2EF02D0F2EF5E58F2EFBE39F2E68
S1130960F6EDAF2EF9E3BF2EF02DEDC10F2EFAE90F
S11309704F2EF9E95F2EF9EF6F2EFFE37F2EF02D56
S11309800F2EFEEF8F2EF0EF9F2EFCE4AF2EF9E337
S1130990BF2EF02DD8C1412C512C3201689463F83C
S11309A076F80F2EFBE88F2EF4ED9F2EF3E6AF2E94
S11309B0F8E3BF2EF02DC7C10F2E412C512CF8E1C6
S11309C06F2EF0E47F2EF02D0F2EF4EC8F2EF0E737
S11309D09F2EF4E1AF2EF7E3BF2EF02DB4C10F2EFE
S11309E0412C512CF8E26F2EF0E47F2EF02D0F2EC7
S11309F0F8E78F2EFBE89F2EF3ECAF2EF5E3BF2E26
S1130A00F02DA1C10F2E412C512CF8E36F2EF0E4F0
S1130A107F2EF02D0F2EF7E28F2EF5EE9F2EF1E8AC
S1130A20AF2EF4E3BF2EF02D8EC10F2E412C512C8E
S1130A30F0E56F2EF0E47F2EF02D0F2EF8ED8F2EC3
S1130A40FAE69F2EFEE8AF2EF2E3BF2EF02D7BC117
S1130A500F2E412C512CF0E76F2EF0E47F2EF02D59
S1130A600F2EF6E48F2EF1E79F2EF2E0AF2EF0E387
S1130A70BF2EF02D68C10F2E412C512CF8E86F2E9B
S1130A80F0E47F2EF02D0F2EF3E48F2EFAEB9F2E41
S1130A90F2E7AF2EFDE2BF2EF02D55C10F2E412CF3
S1130AA0512CF8E96F2EF0E47F2EF02D0F2EF8E292
S1130AB08F2EF1E29F2EF5EEAF2EFAE2BF2EF02D2F
S1130AC042C10F2E412C512CF4EA6F2EF0E47F2EFC
S1130AD0F02D0F2EF1E98F2EF3E59F2EF4E0AF2ECB
S1130AE0F9E2BF2EF02D2FC10F2E412C512CF8EA24
S1130AF06F2EF0E47F2EF02D0F2EFEE08F2EF3E507
S1130B009F2EFDE5AF2EF8E2BF2EF02D1CC10F2E57
S1130B10412C512CF4EA6F2EF0E47F2EF02D0F2E91
S1130B20F2E08F2EFEE59F2EF3E0AF2EF9E2BF2E0A
S1130B30F02D09C10F2E412C512CF8E96F2EF0E451
S1130B407F2EF02D0F2EF6ED8F2EF5E09F2EF9ED72
S1130B50AF2EFAE2BF2EF02DF6C00F2E412C512CF1
S1130B60F8E86F2EF0E47F2EF02D0F2EF7E08F2E95
S1130B70FCE79F2EF0E5AF2EFDE2BF2EF02DE3C083
S1130B800F2E412C512CF0E76F2EF0E47F2EF02D28
S1130B900F2EFFEC8F2EFCE09F2EF4ECAF2EFFE225
S1130BA0BF2EF02DD0C00F2E412C512CF0E56F2E0E
S1130BB0F0E47F2EF02D0F2EF9E28F2EFEE99F2E0A
S1130BC0F3E3AF2EF2E3BF2EF02DBDC00F2E412C68
S1130BD0512CF8E36F2EF0E47F2EF02D0F2EFDE163
S1130BE08F2EF3EA9F2EFAE0AF2EF4E3BF2EF02D02
S1130BF0AAC00F2E412C512CF8E26F2EF0E47F2E68
S1130C00F02D0F2EFFE18F2EF1E39F2EF7E3AF2E91
S1130C10F5E3BF2EF02D97C00F2E412C512CF8E197
S1130C206F2EF0E47F2EF02D0F2EFEED8F2EF5E8C3
S1130C309F2EFFE6AF2EF6E3BF2EF02D84C0412C8D
S1130C40512C3201689463F876F80F2EFCE88F2E4D
S1130C50F4E49F2EFAE9AF2EF7E3BF2EF02D73C014
S1130C600F2EFAE94F2EF9E95F2EF9EF6F2EFFE30D
S1130C707F2EF02D0F2EF5E48F2EFBE89F2EFFE63E
S1130C80AF2EF8E3BF2EF02D5EC00F2E412C512C59
S1130C90F0EF6F2EFFE37F2EF02D0F2EF4EB8F2E4F
S1130CA0FEE79F2EF1ECAF2EF8E3BF2EF02D4BC0E4
S1130CB00F2E412C512CF0EF6F2EFFE37F2EF02DE1
S1130CC00F2EF6EF8F2EF4ED9F2EF3ECAF2EF8E3FC
S1130CD0BF2EF02D38C00F2EF6E64F2E542CF6EF13
S1130CE06F2EFFE37F2EF02D0F2EF0E48F2EF6E80B
S1130CF09F2EF7E9AF2EF8E3BF2EF02D24C00F2E60
S1130D00FDEC4F2EFCEC5F2EFCEF6F2EFFE37F2EED
S1130D10F02D0F2EFBE78F2EF6EF9F2EF2E7AF2E6E
S1130D20F8E3BF2EF02D0FC0412C512C32016894F2
S1130D3076F80F2EFCE48F2EFDE59F2EFAE5AF2EFC
S1130D40F8E3BF2EF02D20E030E040E85FEBC50172
S1130D50B4010E944F138823A1F120E030E040E861
S1130D605FEBC301B2010E944F13882379F120E0A5
S1130D7030E0A901C701B6010E94191518165CF5E7
S1130D8020E030E44CE156E4C701B6010E944F1361
S1130D90882334F5A3019201C701B6010E9493157B
S1130DA09B01AC01C501B4010E94261529813A8139
S1130DB04B815C810E945913562F472F382F292FBE
S1130DC013C050E040E030E82FEB0EC050E040E0AC
S1130DD030E82FEB09C050E040E030E82FEB04C0CE
S1130DE050E040E030E82FEB652F742F832F922FD3
S1130DF00F900F900F900F90DF91CF911F910F9153
S1130E00FF90EF90DF90CF90BF90AF909F908F9026
S1130E107F906F905F904F9008954F925F926F9282
S1130E207F928F929F92AF92BF92CF92DF92EF9276
S1130E30FF920F931F93CF93DF9300D000D0CDB7D1
S1130E40DEB74B015C0129013A01E982FA820B8386
S1130E501C8320E030E040E450E40E9493152DEB25
S1130E6037E346E856E30E9426156B017C0120E037
S1130E7030E040E050E4C501B4010E94931527E13D
S1130E8037EB41ED59E30E9426159B01AC01C701E4
S1130E90B6010E94B3126B017C012BE531EB4FEBE1
S1130EA05CE3C501B4010E9426159B01AC01C70196
S1130EB0B6010E94B41223ED3EED40E85EE30E94C9
S1130EC0B31220E030E048EC52E40E9426150E9460
S1130ED0E31520E030E048EC52E40E9459136B0122
S1130EE07C012AE830EB41EC5EE369817A818B81F5
S1130EF09C810E9426159B01AC01C701B6010E948A
S1130F0026159B01AC01C301B2010E94B3129B01DF
S1130F10AC01C301B2010E94591322E538EB4EE73C
S1130F205FE30E94261520E030E048EC52E40E9482
S1130F3026150E94E31520E030E048EC52E40E94BC
S1130F4059130F900F900F900F90DF91CF911F9135
S1130F500F91FF90EF90DF90CF90BF90AF909F9054
S1130F608F907F906F905F904F90089521E73DE3BD
S1130F704CEE51E40E94B31221E73DE34CEE51E400
S1130F800E94591320E030E048EC52E40E942615F8
S1130F900E94E31520E030E048EC52E40E9459132B
S1130FA008958F929F92AF92BF92CF92DF92EF9269
S1130FB0FF924B015C01CA01B9012AEF3DEE4BE6F9
S1130FC05BEB0E94261520E030E04CE652E40E94E0
S1130FD0B4126B017C019B01AC01C501B4010E94F8
S1130FE0B3124B015C012DEC3CEC45EE53E4C7011C
S1130FF0B6010E94B4129B01AC01C501B4010E9468
S1131000591320E030E048EC52E40E9426150E9477
S1131010E31520E030E048EC52E40E945913FF90BD
S1131020EF90DF90CF90BF90AF909F908F900895F6
S11310308F929F92AF92BF92CF92DF92EF92FF92E4
S11310406B017C0120E030E040E450E40E94931501
S11310502DE73DE140E957EA0E9426154B015C016A
S113106020E030E040E050E4C701B6010E9493154F
S11310702FEF36EE4BED5FE20E9426159B01AC018B
S1131080C501B4010E94B4124B015C0122E838EAA4
S11310904BEF57E3C701B6010E9426159B01AC0133
S11310A0C501B4010E94B31220E030E040E85FE3E0
S11310B00E94B41220E030E048EC52E40E9426156D
S11310C00E94E31520E030E048EC52E40E945913FA
S11310D09B01AC0160E070E080E89FE30E9459133B
S11310E0FF90EF90DF90CF90BF90AF909F908F9044
S11310F008954F925F926F927F928F929F92AF92D8
S1131100BF92CF92DF92EF92FF920F931F93CF93F0
S1131110DF93CDB7DEB72C970FB6F894DEBF0FBEC2
S1131120CDBF69877A878B879C8729013A01E98239
S1131130FA820B831C83CA01B9010E9418086D83CB
S11311407E838F839887A3019201C601B5010E9413
S1131150D1072B013C01EF8CF8A009A11AA1298128
S11311603A814B815C81C601B5010E940D076B0178
S11311707C0169817A818B819C810E94B6074B0135
S11311805C0120E030E040E85FE3C301B2010E946B
S1131190B412A50194010E94B3129B01AC016D81AC
S11311A07E818F8198850E9426159B01AC01C70121
S11311B0B6010E94261520E030E048EC52E40E947B
S11311C026150E94E31520E030E048EC52E40E942A
S11311D0591329853A854B855C850E9426152C96E2
S11311E00FB6F894DEBF0FBECDBFDF91CF911F9134
S11311F00F91FF90EF90DF90CF90BF90AF909F90B2
S11312008F907F906F905F904F9008954F925F9270
S11312106F927F92AF92BF92CF92DF92EF92FF9242
S11312200F931F93CF93DF93CDB7DEB728970FB6F5
S1131230F894DEBF0FBECDBF29833A834B835C8312
S11312402DEC3CEC4CE851E40E9426156D837E8322
S11312508F83988729813A814B815C81C801B701CA
S11312600E9459139B01AC01C601B5010E94B3123F
S11312709B01AC016D817E818F8198850E9426152A
S113128028960FB6F894DEBF0FBECDBFDF91CF9185
S11312901F910F91FF90EF90DF90CF90BF90AF9090
S11312A07F906F905F904F900895CF92DF92EF926E
S11312B0FF926B017C01CA01B9010E9454010E9492
S11312C05413A70196010E942615FF90EF90DF901A
S11312D0CF900895CF92DF92EF92FF926B017C0141
S11312E0CA01B9010E9454010E940716A701960180
S11312F00E942615FF90EF90DF90CF9008952F92D3
S11313003F924F925F926F927F928F929F92AF9291
S1131310BF92CF92DF92EF92FF920F931F93CF93DE
S1131320DF93CDB7DEB7E6970FB6F894DEBF0FBEF6
S1131330CDBF98A38F8F49A35AA36BA37CA30FA7F8
S113134018AB29AB3AAB8B8E9C8EAD8EBE8ED7017B
S1131350C601B0588BAB9CABADABBEAB60E070E0EC
S113136080E691E40E94540169A77AA78BA79CA701
S11313701EA61DA61DA21EA21FA218A616C26DA1FE
S11313807EA18FA198A50E9407164B015C019B01C9
S1131390AC016FA578A989A99AA90E942615562E91
S11313A0472E8D839E836DA17EA18FA198A50E9457
S11313B054136B017C019B01AC016FA578A989A929
S11313C09AA90E942615362E272E782E692E28EAF1
S11313D036EC40E052ECC501B4010E9426156B8B3B
S11313E07C8B8D8B9E8B28EA36EC40E052ECC70157
S11313F0B6010E9426156F8B788F898F9A8F20E013
S113140030E040E451E46BA97CA98DA99EA90E9417
S113141059136B877C878D879E871F821886198650
S11314201A8627C120E030E040E050E4632D722D9D
S1131430872D962D0E9493156B017C0120E030E0EE
S113144040E050E4652D742D8D819E810E9493159A
S11314509B01AC01C701B6010E94B41220E030E048
S113146040E05FE30E9493156B017C019B01AC019A
S113147060E070E080E89FE30E94591369837A83F7
S11314808B839C839701860149A15AA16BA17CA1FE
S11314908F8D98A10E9494014B015C01B7FAB0941E
S11314A0B7F8B094A5019401652D742D8D819E81AA
S11314B00E942615A70196010E9459139B01AC01B5
S11314C069817A818B819C810E9426156F87788B34
S11314D0898B9A8BA5019401632D722D872D962DEE
S11314E00E942615A70196010E9459139B01AC0185
S11314F069817A818B819C810E9426159B01AC01B4
S1131500632D722D872D962D0E94B4126B017C01E0
S11315102F85388949895A89652D742D8D819E813D
S11315200E94B4124B015C0129813A814B815C8198
S11315306F89788D898D9A8D0E9426159B01AC0147
S1131540C501B4010E94B412162F072FB82EA92E7C
S113155029813A814B815C816B897C898D899E8943
S11315600E9426159B01AC01C701B6010E94B4126A
S1131570F62EE72ED82EC92E262F372F482F592F77
S1131580632D722D872D962D0E94B4129B01AC0100
S113159069817A818B819C810E94261520E030E04C
S11315A040E05FE30E9426159B01AC016F817885C2
S11315B089859A850E94B4126F83788789879A8770
S11315C0212F302F4B2D5A2D652D742D8D819E8109
S11315D00E94B4129B01AC0169817A818B819C8148
S11315E00E94261520E030E040E05FE30E942615CB
S11315F09B01AC016B857C858D859E850E94B41210
S11316006B877C878D879E8720E030E0A901612F5E
S1131610702F8B2D9A2D0E944F13882374F42F96CC
S11316202CAD3DAD4EAD5FAD2F976B857C858D8523
S11316309E850E944F1388238CF120E030E040E423
S113164050E46F2D7E2D8D2D9C2D0E9426159B011F
S1131650AC01612F702F8B2D9A2D0E94191518162D
S1131660ECF0512E402EBD82AE823F2C2E2C7D2CD0
S11316706C2C20E030E040E450E46B8D7C8D8D8D4B
S11316809E8D0E9426159B01AC016F81788589850A
S11316909A850E944F1318160CF0C4CE2F962CADC9
S11316A03DAD4EAD5FAD2F976B857C858D859E8559
S11316B00E9419151816D4F420E030E0A90169A598
S11316C07AA58BA59CA50E94191518167CF469A50A
S11316D07AA58BA59CA5905820E030E040E05FE31C
S11316E00E94261569A77AA78BA79CA72F962CADD5
S11316F03DAD4EAD5FAD2F976B857C858D859E8509
S11317000E944F138823D4F420E030E0A90169A596
S11317107AA58BA59CA50E944F1388237CF469A508
S11317207AA58BA59CA5905820E030E040E05FE3CB
S11317300E94261569A77AA78BA79CA76AE077ED74
S113174083E29CE30E9461019B01AC0169A57AA537
S11317508BA59CA59F770E944F13882324F4A1E0B6
S1131760B0E0BEA7ADA760E070E084E392E40E941D
S113177054019B01AC016DA17EA18FA198A50E948B
S11317801915181624F481E090E09EA78DA729A5C9
S11317903AA54BA55CA56DA17EA18FA198A50E9439
S11317A0B4126DA37EA38FA398A7ADA5BEA5AB2B42
S11317B009F4E5CD6DA17EA18FA198A50E947401C5
S11317C0E6960FB6F894DEBF0FBECDBFDF91CF9182
S11317D01F910F91FF90EF90DF90CF90BF90AF904B
S11317E09F908F907F906F905F904F903F902F903D
S11317F008952F923F924F925F926F927F928F92B1
S11318009F92AF92BF92CF92DF92EF92FF920F938B
S11318101F93CF93DF93CDB7DEB7E4970FB6F89459
S1131820DEBF0FBECDBF9CA38BA34DA35EA36FA34E
S113183078A70DA71EA72FA738AB65962CAD3DAD95
S11318404EAD5FAD659761966CAD7DAD8EAD9FADD0
S113185061970E9455096F8B788F898F9A8F65964F
S11318602CAD3DAD4EAD5FAD659761966CAD7DAD74
S11318708EAD9FAD61970E946A0969AB7AAB8BAB61
S11318809CAB2D962CAD3DAD4EAD5FAD2D97C501F6
S1131890B4010E94B4120E9454014B015C010E94E5
S11318A0541328EA36EC40E052EC0E9426156B8F64
S11318B07C8F8D8F9E8FC501B4010E94071628EA84
S11318C036EC40E052EC0E9426156F8F78A389A372
S11318D09AA32D966CAD7DAD8EAD9FAD2D970E94D4
S11318E054014B015C010E9454139B01AC016DA592
S11318F07EA58FA598A90E9426156D837E838F836C
S11319009887C501B4010E9407169B01AC016DA51F
S11319107EA58FA598A90E94261569877A87282E07
S1131920392EC701B601905820E030E040E451E47C
S11319300E9459136F87788B898B9A8B1B861C8620
S11319401D861E861B8A1C8A1D8A1E8A20E030E0A2
S113195040E050E46D817E818F8198850E949315CB
S11319606B017C0120E030E040E050E469857A8539
S1131970822D932D0E9493159B01AC01C701B601E2
S11319800E94B41220E030E040E05FE30E9493152F
S1131990D62EE72EF82EC92E69A77AA78BA79CA767
S11319A0262F372F482F592F60E070E080E09FE307
S11319B00E94591369837A838B839C832D2D3E2D3A
S11319C04F2D5C2D6F89788D898D9A8D0E94B4126C
S11319D08B019C014DA15EA16FA178A58BA19CA157
S11319E00E9494014B015C012D2D3E2D4F2D5C2D49
S11319F06D817E818F8198850E9459139B01AC0172
S1131A005058C501B4010E9426152B013C012D2D0F
S1131A103E2D4F2D5C2D69857A85822D932D0E9454
S1131A2059139B01AC015058C501B4010E942615FD
S1131A306B017C01A301920169817A818B819C8174
S1131A400E9426159B01AC016D817E818F81988552
S1131A500E94B4124B015C0129813A814B815C8163
S1131A606F8D78A189A19AA10E9426159B01AC01D2
S1131A70C501B4010E94B412A62EB72E082F192F47
S1131A80A701960169817A818B819C810E94261528
S1131A909B01AC0169857A85822D932D0E94B41235
S1131AA06B017C0129813A814B815C816B8D7C8D3A
S1131AB08D8D9E8D0E9426159B01AC01C701B60138
S1131AC00E94B4122B013C0120E030E040E450E4D9
S1131AD06B857C858D859E850E9459136B017C01E5
S1131AE00E94CB13CB0162E370E00E9448174C01C3
S1131AF0892B09F086C0AD82BE82202E312E6796D6
S1131B00EEADFFAD6797C082D182E282F38220E01E
S1131B1030E040E451E46F85788989899A890E948C
S1131B2026156796EEADFFAD67976483758386834C
S1131B3097832B853C854D855E856F85788989895A
S1131B409A890E9459130E9420130E948101DC018A
S1131B50CB01B0586796EEADFFAD6797808791874C
S1131B60A287B38729813A814B815C816B897C8907
S1131B708D899E890E94B4126796EEADFFAD67977A
S1131B8064877587868797875B016C01EB84FC8487
S1131B900D851E852DA53EA54FA558A969A97AA92D
S1131BA08BA99CA90E9406096796EEADFFAD6797C5
S1131BB0608B718B828B938B0E9420130E94810116
S1131BC06796EEADFFAD6797648B758B868B978BAD
S1131BD089A59AA5ABA5BCA5808F918FA28FB38F41
S1131BE08D819E81A22DB32D848F958FA68FB78F63
S1131BF040A251A262A273A214A215A216A217A215
S1131C0074C02A2D3B2D402F512F6D817E818F81F1
S1131C1098850E94B4129B01AC0169817A818B8101
S1131C209C810E94261520E030E040E05FE30E94A2
S1131C3026159B01AC016B857C858D859E850E9454
S1131C40B4126B877C878D879E87A3019201698577
S1131C507A85822D932D0E94B4129B01AC01698177
S1131C607A818B819C810E94261520E030E040E03F
S1131C705FE30E9426159B01AC016F8578898989F1
S1131C809A890E94B4126F87788B898B9A8B20E093
S1131C9030E040E450E46A2D7B2D802F912F0E9488
S1131CA026159B01AC015F77C301B2019F770E94A7
S1131CB019151816BCF029813A814B815C816B8916
S1131CC07C898D899E890E94B4126B8B7C8B8D8B51
S1131CD09E8BAD82BE820F83188749865A86262C36
S1131CE0372C34CE88248A94982CC401E4960FB6F9
S1131CF0F894DEBF0FBECDBFDF91CF911F910F913E
S1131D00FF90EF90DF90CF90BF90AF909F908F9017
S1131D107F906F905F904F903F902F900895CF9257
S1131D20DF92EF92FF920F931F93CF93DF93EC0117
S1131D308B01FC01EC5BF24FC080D180E280F38028
S1131D40072E000C880B990B0E9403149B01AC0115
S1131D50C701B6010E941915181674F488E2809F11
S1131D60F001819FF00D11243496EC0FFD1F60816A
S1131D7071818281938103C060E070E0CB01DF91C7
S1131D80CF911F910F91FF90EF90DF90CF90089526
S1131D90CF92DF92EF92FF920F931F93CF93DF9333
S1131DA0EC018B01FC01EC5BF24FC080D180E2803E
S1131DB0F380072E000C880B990B0E9403149B01DF
S1131DC0AC01C701B6010E941915181674F488E213
S1131DD0809FF001819FF00D11243896EC0FFD1FB8
S1131DE0608171818281938103C060E070E0CB01E6
S1131DF0DF91CF911F910F91FF90EF90DF90CF90E3
S1131E000895CF92DF92EF92FF920F931F93CF9397
S1131E10DF93EC018B01FC01EC5BF24FC080D180BD
S1131E20E280F380072E000C880B990B0E940314A8
S1131E309B01AC01C701B6010E941915181674F470
S1131E4088E2809FF001819FF00D11247096EC0FC1
S1131E50FD1F608171818281938103C060E070E025
S1131E60CB01DF91CF911F910F91FF90EF90DF9005
S1131E70CF900895CF92DF92EF92FF920F931F932A
S1131E80CF93DF93EC018B01FC01EC5BF24FC0803C
S1131E90D180E280F380072E000C880B990B0E94FE
S1131EA003149B01AC01C701B6010E941915181651
S1131EB074F488E2809FF001819FF00D11247496E0
S1131EC0EC0FFD1F608171818281938103C060E00A
S1131ED070E0CB01DF91CF911F910F91FF90EF90B4
S1131EE0DF90CF90089584B18F6084B987B1887FE3
S1131EF087B918B815B8089540E050E03CC081E0B7
S1131F0090E0042E02C0880F991F0A94E2F785B965
S1131F108FE19EE40197F1F700C0000020E030E07B
S1131F2025C086B190E0022E02C0959587950A944B
S1131F30E2F780FF19C0FA01EE0FFF1FEE0FFF1F3B
S1131F40E050FF4FE20FF31F8081823469F486B1C1
S1131F5090E0022E02C0959587950A94E2F780FDE1
S1131F60F6CF81E090E008952F5F3F4F2430310594
S1131F70C4F24F5F5F4F443051050CF280E090E0B3
S1131F8008952F923F924F925F926F927F928F9219
S1131F909F92AF92BF92CF92DF92EF92FF920F93F4
S1131FA01F93CF93DF93CDB7DEB7C655D1090FB6D4
S1131FB0F894DEBF0FBECDBF182F8D3209F074C068
S1131FC0E091DC01EE2309F459C2E150E093DC0115
S1131FD0F0E0E352FE4F1081108281E00E94BA00CB
S1131FE08DED91E00E9420011E3219F41092D70168
S1131FF045C26091D7016623C1F18FEF860F8093AC
S1132000D701612F70E08B0100531109682F70E034
S113201080E090E00E9401149B01AC0160E070E05C
S113202080E291E40E9493156B017C01B801110FC9
S1132030880B990B0E940314A70196010E9459135F
S11320409B01AC016091D8017091D9018091DA01B2
S11320509091DB010E94B3126093D8017093D9016F
S11320608093DA019093DB0109C220E030E040E282
S113207051E46091D8017091D9018091DA01909175
S1132080DB010E9459130E94CB13072E000C880B0E
S1132090990B0E9403146093D8017093D901809323
S11320A0DA019093DB01EAC18E32A9F48091D70161
S11320B08111E4C181E08093D7018091DC01E82F94
S11320C0F0E0E352FE4F10838F5F8093DC01812F99
S11320D00E94ED00D3C180ED810F8A3008F05CC00E
S11320E0612F70E060537109072E000C880B990B67
S11320F00E9403146B017C01B090D701B1100DC094
S113210013C020E030E040E251E4C701B6010E9470
S113211059136B017C010F5F01C000E00B1588F3BC
S1132120B394B092D70116C020E030E040E251E40D
S11321306091D8017091D9018091DA019091DB010D
S11321400E9426156093D8017093D9018093DA0117
S11321509093DB01A70196016091D8017091D90198
S11321608091DA019091DB010E94B4126093D8014E
S11321707093D9018093DA019093DB018091DC01A3
S1132180E82FF0E0E352FE4F10838F5F8093DC0171
S1132190812F0E94ED0072C1133709F06FC1809145
S11321A0A601E82FF0E0EE0FFF1FEE0FFF1FE95529
S11321B0FE4F4091D8015091D9016091DA0170919C
S11321C0DB0140835183628373831092D8011092A0
S11321D0D9011092DA011092DB011092D7018F5FBE
S11321E08093A60181E00E94BA00E091A601EC3040
S11321F070F4F0E0EE0FFF1FE05FFE4F80819181ED
S11322000E9420018AE691E00E94200137C1EC304F
S113221008F434C10F2EF7EA2F2EF1E03F2EF02DF3
S1132220F10184A595A566A577A5A0A4B1A4C2A42F
S1132230D3A4E4A0F5A006A117A120A131A142A135
S113224053A140805180628073807F936F939F93EA
S11322508F93C301B2010E9479080F900F900F90E1
S11322600F9065966CAF7DAF8EAF9FAF6597F10110
S1132270848D958D268D378D808C918CA28CB38C1A
S113228040855185628573852D964CAF5DAF6EAFE9
S11322907FAF2D97448155816681778161964CAFDC
S11322A05DAF6EAF7FAF61973F932F939F938F93F3
S11322B02D96CCACDDACEEACFFAC2D9761960CAD9D
S11322C01DAD2EAD3FAD6197B301A20181E090E059
S11322D00E947F090F900F900F900F90F101A48935
S11322E0B5891689078940895189F288E3888484ED
S11322F09584A684B7849E012F5D3F4F3F932F930F
S11323000F931F93BF93AF93EF92FF925F934F93FB
S11323109F938F937F936F932D96CCACDDACEEACF3
S1132320FFAC2D9761960CAD1DAD2EAD3FAD619701
S113233065964CAD5DAD6EAD7FAD659781E090E087
S11323400E94F90B67969FAF8EAF67970FB6F8940C
S1132350DEBF0FBECDBFF12C87C0B801CE01819680
S11323600E948F0E562E472E382E292EB801CE01EC
S113237081960E94C80ED62EC72EB82EA92EB8015B
S1132380CE0181960E94010F962E872E782E692EFB
S1132390B801CE0181960E943A0F2A966FAF2A9710
S11323A02E967FAF2E9762968FAF6297E92E2F926B
S11323B03F924F925F921F92FF9288E291E09F9327
S11323C08F938E010F5F1F4F1F930F930E947017FF
S11323D06F927F928F929F92AF92BF92CF92DF9231
S11323E08DE391E09F938F931F930F930E94701737
S11323F0EF9262965FAD62975F932E966FAD2E97C4
S11324006F932A967FAD2A977F9382E591E09F93FD
S11324108F931F930F930E94701781E00E94BA005C
S1132420C8010E9420010FB6F894DEBF0FBECDBFD5
S11324300E947C0F892BE1F381E00E94BA00CE0157
S113244001960E9420010E947C0F892BE1F381E018
S11324500E94BA00CE0101960E9420010E947C0FC6
S1132460892BE1F392E3F90E0F2D10E06796EEADA0
S1132470FFAD6797E017F1070CF06FCFCA5ADF4F33
S11324800FB6F894DEBF0FBECDBFDF91CF911F9181
S11324900F91FF90EF90DF90CF90BF90AF909F90FF
S11324A08F907F906F905F904F903F902F90089502
S11324B00F931F93CF93DF9300E010E038C081E0C7
S11324C090E0002E02C0880F991F0A94E2F785B9A4
S11324D08FE19EE40197F1F700C00000C0E0D0E076
S11324E020C086B190E00C2E02C0959587950A9481
S11324F0E2F780FF15C0F801EE0FFF1FEE0FFF1F7C
S1132500E050FF4FEC0FFD1F80810E94C10F8FEF41
S113251091EE24E0815090402040E1F700C000009B
S11325202196C430D105ECF215B80F5F1F4F04306B
S113253011052CF2DF91CF911F910F9108950E9404
S113254036010E94730F84E691E00E9420010E94EC
S113255058122FEF83EC99E0215080409040E1F72E
S113256000C00000F4CF5058BB27AA270E94CB120A
S11325700C94CB140E94921438F00E94991420F009
S113258039F49F3F19F426F40C9468140EF4E09582
S1132590E7FB0C946214E92F0E94F01458F3BA1765
S11325A0620773078407950720F079F4A6F50C9465
S11325B012150EF4E0950B2EBA2FA02D0B01B901C4
S11325C090010C01CA01A0011124FF27591B99F0A5
S11325D0593F50F4503E68F11A16F040A22F232FB1
S11325E0342F4427585FF3CF469537952795A79501
S11325F0F0405395C9F77EF41F16BA0B620B730BA8
S1132600840BBAF09150A1F0FF0FBB1F661F771F18
S1132610881FC2F70EC0BA0F621F731F841F48F4CD
S1132620879577956795B795F7959E3F08F0B0CF56
S11326309395880F08F09927EE0F9795879508953D
S1132640DF93DD27B92FBF7740E85FE3161617063F
S113265048075B0718F4D92F0E941E159F938F9388
S11326607F936F930E940F16E8E6F0E00E946B14CC
S11326700E94CB142F913F914F915F910E94391585
S1132680DD2351F09058A2EA2AED3FE049EC5FE3E4
S1132690D0785D270E94CB12DF910C94CB140E945A
S11326A03E1408F481E008950E94A214E3950C946A
S11326B0DC140E946D130C94CB140E94991458F0EE
S11326C00E94921440F029F45F3F29F00C946214A4
S11326D051110C9413150C9468140E94F01468F3AF
S11326E09923B1F3552391F3951B550BBB27AA27C7
S11326F062177307840738F09F5F5F4F220F331F01
S1132700441FAA1FA9F335D00E2E3AF0E0E832D0C8
S113271091505040E695001CCAF72BD0FE2F29D0CB
S1132720660F771F881FBB1F261737074807AB079D
S1132730B0E809F0BB0B802DBF01FF2793585F4F12
S11327403AF09E3F510578F00C9462140C941315E2
S11327505F3FE4F3983ED4F3869577956795B795F4
S1132760F7959F5FC9F7880F911D9695879597F9FF
S11327700895E1E0660F771F881FBB1F6217730778
S11327808407BA0720F0621B730B840BBA0BEE1F8D
S113279088F7E09508950E94D2136894B1110C94BF
S11327A0131508950E94F81488F09F5798F0B92FD4
S11327B09927B751B0F0E1F0660F771F881F991F72
S11327C01AF0BA95C9F714C0B13091F00E941215ED
S11327D0B1E008950C941215672F782F8827B85FFD
S11327E039F0B93FCCF3869577956795B395D9F7CA
S11327F03EF490958095709561957F4F8F4F9F4FD4
S11328000895E89409C097FB3EF4909580957095DF
S113281061957F4F8F4F9F4F9923A9F0F92F96E928
S1132820BB279395F695879577956795B795F1119D
S1132830F8CFFAF4BB0F11F460FF1BC06F5F7F4F3A
S11328408F4F9F4F16C0882311F096E911C077234C
S113285021F09EE8872F762F05C0662371F096E855
S1132860862F70E060E02AF09A95660F771F881F24
S1132870DAF7880F9695879597F90895990F0008C8
S1132880550FAA0BE0E8FEEF16161706E807F9073E
S1132890C0F012161306E407F50798F0621B730BD9
S11328A0840B950B39F40A2661F0232B242B252B5A
S11328B021F408950A2609F4A140A6958FEF811DFD
S11328C0811D089597F99F6780E870E060E008959E
S11328D09FEF80EC0895DF93CF931F930F93FF92A4
S11328E0EF92DF927B018C01689406C0DA2EEF012F
S11328F00E943915FE01E894A591259135914591E1
S11329005591A6F3EF010E94CB12FE019701A80195
S1132910DA9469F7DF90EF90FF900F911F91CF91B8
S1132920DF91089500240A9416161706180609065E
S1132930089500240A941216130614060506089531
S11329400C9468140E94F814D8F3E894E0E0BB27D0
S11329509F57F0F02AED3FE049EC06C0EE0FBB0FA5
S1132960661F771F881F28F0B23A6207730784072F
S113297028F0B25A620B730B840BE3959A9572F7A5
S1132980803830F49A95BB0F661F771F881FD2F7E3
S113299090480C946A16092E0394000C11F48823B1
S11329A052F0BB0F40F4BF2B11F460FF04C06F5F03
S11329B07F4F8F4F9F4F0895EF93E0FF07C0A2EA28
S11329C02AED3FE049EC5FEB0E94CB120E94CB144E
S11329D00F90039401FC9058E5E9F0E00C9476160E
S11329E057FD9058440F551F59F05F3F71F04795BC
S11329F0880F97FB991F61F09F3F79F087950895A1
S1132A00121613061406551FF2CF4695F1DF08C0BF
S1132A10161617061806991FF1CF869571056105DC
S1132A2008940895E894BB2766277727CB0197F984
S1132A3008950E943E1408F48FEF08959B01AC01A1
S1132A4060E070E080E89FE30C9459130E9439150C
S1132A500C94CB140E94921438F00E94991420F024
S1132A60952311F00C9462140C94681411240C94A2
S1132A7013150E94F01470F3959FC1F3950F50E065
S1132A80551F629FF001729FBB27F00DB11D639F1C
S1132A90AA27F00DB11DAA1F649F6627B00DA11DC2
S1132AA0661F829F2227B00DA11D621F739FB00D68
S1132AB0A11D621F839FA00D611D221F749F3327D8
S1132AC0A00D611D231F849F600D211D822F762F71
S1132AD06A2F11249F5750409AF0F1F088234AF04E
S1132AE0EE0FFF1FBB1F661F771F881F91505040BA
S1132AF0A9F79E3F510580F00C9462140C941315B1
S1132B005F3FE4F3983ED4F3869577956795B79540
S1132B10F795E7959F5FC1F7FE2B880F911D96955A
S1132B20879597F90895FA01EE0FFF1F3096210556
S1132B303105A1F16115710561F48038BFE39B078C
S1132B4049F168949038810561F08038BFEF9B07A4
S1132B5041F099234AF5FF3FE1053105210519F1BB
S1132B60E8940894E795D901AA2329F4AB2FBE2F42
S1132B70F85FD0F310C0FF5F70F4A695E0F7F73963
S1132B8050F019F0FF3A38F49F779F930DD00F90CF
S1132B9007FC9058089546F00C94681460E070E0C7
S1132BA080E89FE308954FE79F775F934F933F93A8
S1132BB02F930E94CC162F913F914F915F910E94C9
S1132BC026150C941B160E94F814E8F09E37E8F0C2
S1132BD09639B8F49E3848F4672F782F8827985F81
S1132BE0F9CF86957795679593959539D0F3B62F58
S1132BF0B1706B0F711D811D20F4879577956795D2
S1132C0093950C944D160C9468160C9413159F937D
S1132C100E94A2140F9007FCEE5F0C94DC149B013D
S1132C20AC010C94261529F416F00C9462140C943F
S1132C3012150C9468140E94F814A8F39638A0F79F
S1132C4007F80F92E8942BE33AEA48EB5FE70E9417
S1132C503C150F920F920F924DB75EB70F920E94E0
S1132C601417E3EBF0E00E946B144F915F91EF9126
S1132C70FF91E595EE1FFF1F49F0FE57E0684427DA
S1132C80EE0F441FFA95E1F74195550B0E948E16FD
S1132C900F9007FE0C941E150895882371F4772372
S1132CA021F09850872B762F07C0662311F49927BB
S1132CB00DC09051862B70E060E02AF09A95660F63
S1132CC0771F881FDAF7880F9695879597F90895E7
S1132CD09F3F31F0915020F4879577956795B7958C
S1132CE0880F911D9695879597F908959F938F93D3
S1132CF07F936F93FF93EF939B01AC010E94261582
S1132D00EF91FF910E946B142F913F914F915F912E
S1132D100C9426150C9462140C9468160E94F814F2
S1132D20D8F39923C9F3940F511DA3F39150504044
S1132D3094F059F0882332F0660F771F881F915062
S1132D405040C1F79E3F51052CF7880F911D969571
S1132D50879597F908955F3FACF0983E9CF0BB27A8
S1132D60869577956795B79508F4B1609395C1F703
S1132D70BB0F58F711F460FFE8CF6F5F7F4F8F4FA1
S1132D809F4FE3CF0C94131516F00C9468160C9413
S1132D90681468940C9462140E94F814A8F399239C
S1132DA0C1F3AEF3DF93CF931F930F93FF92C92F19
S1132DB0DD2788232AF02197660F771F881FDAF70B
S1132DC020E030E040E85FEB9FE3883920F0803E6C
S1132DD038F021968F770E94B412EBEDF0E004C036
S1132DE00E94B412E8E0F1E00E946B148B01BE0172
S1132DF0EC01FB2E6F5771097595771F880B990BA2
S1132E000E94031428E132E741E35FE30E9439158D
S1132E10AF2D9801AE01FF900F911F91CF91DF91DB
S1132E200E94CB120C94CB14FA01DC01AA0FBB1F35
S1132E309B01AC01BF5728F422273327442750783D
S1132E4020C0B75190F4AB2F0024469537952795B1
S1132E50011CA395D2F3002071F0220F331F441FED
S1132E60B395DAF30ED00C94B31261307105A0E877
S1132E708A07B94630F49B01AC0166277727882777
S1132E809078309621F020833183428353830895D0
S1132E9097FB072E16F4009407D077FD09D00E9403
S1132EA05C1707FC05D03EF4909581959F4F0895DB
S1132EB0709561957F4F0895AA1BBB1B51E107C014
S1132EC0AA1FBB1FA617B70710F0A61BB70B881FB6
S1132ED0991F5A95A9F780959095BC01CD01089545
S1132EE0AEE0B0E0E6E7F7E10C94311A0D891E89F3
S1132EF086E08C831A8309838FEF9FE79E838D83FB
S1132F00AE01475E5F4F6F89788DCE0101960E94B6
S1132F109217EF81F885E00FF11F10822E96E4E0FE
S1132F200C944D1AABE0B0E0E8E9F7E10C94231AF5
S1132F306C017B018A01FC0117821682838181FF67
S1132F40CCC1CE0101963C01F6019381F70193FDBA
S1132F50859193FF81917F01882309F4BAC1853259
S1132F6039F493FD859193FF81917F01853229F492
S1132F70B60190E00E948919E7CF912C212C312CC5
S1132F80FFE1F315D8F08B3279F038F4803279F020
S1132F908332A1F4232D20611DC08D3261F0803372
S1132FA069F4232D216016C0832D8260382EE32D11
S1132FB0E4603E2E2AC0F32DF8601DC037FC2DC0FE
S1132FC020ED280F2A3040F08E32B9F436FC81C14E
S1132FD0232D2064322E19C036FE06C08AE0989E46
S1132FE0200D1124922E11C0EAE02E9E200D1124F2
S1132FF0222EF32DF0623F2E08C08C3621F4832D4F
S11330008068382E02C0883641F4F70193FD85911B
S113301093FF81917F018111B3CF982F9F7D9554A8
S1133020933028F40C5F1F4F9FE399830DC08336C0
S113303031F0833771F0833509F059C021C0F801AC
S1133040808189830E5F1F4F88248394912C5301C0
S113305013C02801F2E04F0E511CF801A080B1808A
S113306036FE03C0692D70E002C06FEF7FEFC5012B
S11330700E947E194C018201F32DFF773F2E16C06A
S1133080280122E0420E511CF801A080B18036FED6
S113309003C0692D70E002C06FEF7FEFC5010E948D
S11330A073194C01F32DF0683F2E820133FC1BC0D1
S11330B0822D90E088169906B0F4B60180E290E083
S11330C00E9489192A94F4CFF50137FC859137FEC3
S11330D081915F01B60190E00E94891921102A9420
S11330E021E0821A91088114910471F7E8C08436B2
S11330F011F0893641F5F80137FE07C0608171810E
S1133100828193810C5F1F4F08C060817181072EFB
S1133110000C880B990B0E5F1F4FF32DFF763F2E8B
S113312097FF09C090958095709561957F4F8F4F5B
S11331309F4FF0683F2E2AE030E0A3010E94C5199A
S1133140882E861845C0853731F4232D2F7EB22E64
S11331502AE030E025C0932D997FB92E8F36C1F037
S113316018F4883579F0B5C0803719F0883721F024
S1133170B0C0E92FE061BE2EB4FE0DC0FB2DF4609B
S1133180BF2E09C034FE0AC0292F2660B22E06C005
S113319028E030E005C020E130E002C020E132E068
S11331A0F801B7FE07C060817181828193810C5F51
S11331B01F4F06C06081718180E090E00E5F1F4F59
S11331C0A3010E94C519882E8618FB2DFF773F2E78
S11331D036FE0DC0232D2E7FA22E891458F434FE02
S11331E00BC032FC09C0832D8E7EA82E05C0B82CDE
S11331F0A32C03C0B82C01C0B92CA4FE0FC0FE013F
S1133200E80DF11D8081803321F49A2D997EA92E39
S113321009C0A2FE06C0B394B39404C08A2D867874
S113322009F0B394A3FC11C0A0FE06C0B21488F444
S1133230280C922C9B180EC0B21460F4B60180E2E4
S113324090E00E948919B394F7CFB21418F42B18A4
S113325002C0982C212CA4FE10C0B60180E390E09B
S11332600E948919A2FE17C0A1FC03C088E790E060
S113327002C088E590E0B6010CC08A2D867859F02A
S1133280A1FE02C08BE201C080E2A7FC8DE2B60180
S113329090E00E948919891438F4B60180E390E023
S11332A00E9489199A94F7CF8A94F301E80DF11DCD
S11332B08081B60190E00E9489198110F5CF222007
S11332C009F442CEB60180E290E00E9489192A9462
S11332D0F6CFF6018681978102C08FEF9FEF2B9680
S11332E0E2E10C943F1AFC0105906150704001101A
S11332F0D8F7809590958E0F9F1F0895FC0161501B
S1133300704001900110D8F7809590958E0F9F1F03
S113331008950F931F93CF93DF93FB01238121FD26
S113332003C08FEF9FEF2CC022FF16C04681578148
S1133330248135814217530744F4A081B1819D0152
S11333402F5F3F4F318320838C93268137812F5FFA
S11333503F4F3783268314C08B01EC01FB010084AB
S1133360F185E02D0995892BE1F6D80116968D910A
S11333709C911797019617969C938E931697CE015E
S1133380DF91CF911F910F910895FA01AA27283058
S113339051F1203181F1E8946F936E7F6E5F7F4F1E
S11333A08F4F9F4FAF4FB1E03ED0B4E03CD0670F9A
S11333B0781F891F9A1FA11D680F791F8A1F911DED
S11333C0A11D6A0F711D811D911DA11D20D009F43D
S11333D068943F912AE0269F11243019305D31937F
S11333E0DEF6CF010895462F4770405D4193B3E068
S11333F00FD0C9F7F6CF462F4F70405D4A3318F00F
S1133400495D31FD4052419302D0A9F7EACFB4E0BF
S1133410A6959795879577956795BA95C9F7009777
S11334206105710508959B01AC010A2E0694579518
S1133430479537952795BA95C9F7620F731F841F6F
S1133440951FA01D08952F923F924F925F926F9205
S11334507F928F929F92AF92BF92CF92DF92EF9220
S1133460FF920F931F93CF93DF93CDB7DEB7CA1BA1
S1133470DB0B0FB6F894DEBF0FBECDBF09942A88CC
S1133480398848885F846E847D848C849B84AA8474
S1133490B984C884DF80EE80FD800C811B81AA8101
S11334A0B981CE0FD11D0FB6F894DEBF0FBECDBFCC
S10B34B0ED010895F894FFCF2B
S11334B83132334134353642373839432D302E735F
S11334C86C01730176017B01800185018A018F01FA
S11334D8930197019C019E0152616E67653A20250C
S11334E86420506174683A20252E3266004D4F419D
S11334F83A20252E32662057696E643A20252E32EA
S1133508660057696E64616765204D4F413A20250E
S11335182E32660044436F6566663A0044436F651D
S1133528666600497600534867740053416E670025
S1133538575370640057416E67005A526E6700799A
S1133548496E00416C7400426D7472005400524814
S1093558756D69640000BA
S9030000FC
